:020000040800F2
:10000000480E0020C1010008F50C00085D0600083C
:10001000AF09000835020008F11B000800000000CD
:10002000000000000000000000000000991100081E
:1000300061020008000000009D100008E1150008A2
:10004000DB010008DB010008DB010008DB01000820
:10005000DB010008DB010008DB010008DB01000810
:10006000DB010008DB010008DB010008DB01000800
:10007000DB010008DB010008DB010008DB010008F0
:10008000DB010008DB010008DB010008DB010008E0
:10009000DB010008DB010008DB010008DB010008D0
:1000A000DB010008DB010008DB010008DB010008C0
:1000B000DB010008DB010008DB010008DB010008B0
:1000C000DB010008DB010008DB010008DB010008A0
:1000D000DB0100083119000899190008E919000826
:1000E000DB010008DB010008DB010008DB01000880
:1000F000DB010008DB010008DB010008DB01000870
:10010000DB010008DB010008DB010008DB0100085F
:10011000DB010008DB010008DB010008DB0100084F
:10012000DB010008DB010008DB010008DB0100083F
:10013000DB010008DB010008DB010008DB0100082F
:10014000DB010008DB010008DB010008DB0100081F
:10015000DB010008DB010008DB010008391A000898
:10016000DB010008DB010008DB010008DB010008FF
:10017000DB010008DB010008DB010008DB010008EF
:10018000DB010008DB010008E1180008DB010008C2
:10019000DB010008DB010008DB010008DB010008CF
:1001A000DB010008DB010008DB010008DFF80CD0F0
:1001B00000F02EF800480047091E0008480E0020F5
:1001C0000648804706480047FEE7FEE7FEE7FEE7F1
:1001D000FEE7FEE7FEE7FEE7FEE7FEE7891600081A
:1001E000AD01000830B50B46014600202022012455
:1001F00009E021FA02F59D4205D303FA02F5491BF5
:1002000004FA02F52844151EA2F10102F1DC30BD0A
:10021000064C074D06E0E06840F0010394E8070053
:1002200098471034AC42F6D3FFF7C4FF042100080E
:1002300024210008FEE7000030B502464FF6FF70AB
:10024000064D07E012F8013B4340DBB2040A35F8E3
:1002500013006040491EC9B2F4D230BD041F00082B
:100260007047000070B501460F4DA868427842F013
:100270008002427081700321FFF7DEFFA968C87019
:10028000000A08710024094EA868015D304601F09B
:10029000ABFC4021304601F003FC0028F9D0641C7F
:1002A000052CF1DB70BD000024000020001001408F
:1002B00001490860704700000C3C024070B50646DA
:1002C0000025002905D0012927D0022928D04FF484
:1002D000407500F081F809281ED1134C206820F4E5
:1002E00040702060206828432060206820F0F800DB
:1002F0002060206846F0020108432060206840F436
:100300008030206000F068F8216821F0020121604F
:10031000216821F0F801216070BD4FF48075D8E7A5
:100320004FF40075D5E70000103C024009200D494C
:100330000A68D20301D5012070470A68D20601D5A8
:10034000062070470A68D20501D5022070470A6866
:1003500012F0E00F01D00720704709688907FBD52C
:10036000082070470C3C02400248016841F00041FF
:1003700001607047103C024070B505460E4600F023
:100380002BF8092813D10A4C206820F44070206013
:10039000206840F480702060206840F001002060F8
:1003A0002E8000F019F8216821F00101216070BD54
:1003B000103C024005480068002805DA034804495B
:1003C0000C3801600349016070470000103C024096
:1003D00023016745AB89EFCD08B509200090FFF7F1
:1003E000A5FF009002E0FFF7A1FF00909DF800003C
:1003F0000128F8D09DF8000008BD0000014600204B
:10040000A1F100624FF480439A4204D3204808448B
:10041000984201D2082070471E480844984201D2F1
:10042000102070471C480844984201D21820704799
:100430001A480844B0F5803F01D220207047184880
:100440004FF400320844904201D2282070471548EA
:100450000844904201D2302070471348084490422B
:1004600001D23820704711480844904201D2402000
:1004700070470F480844904201D2482070470D4809
:100480000844904201D25020704758207047000025
:1004900000C0FFF70080FFF70040FFF70000FFF704
:1004A0000000FEF70000FCF70000FAF70000F8F784
:1004B0000000F6F70000F4F710B5002305E030F86F
:1004C000024B22F813405B1CDBB28B42F7D310BD0A
:1004D0002DE9F04105460E461746FFF76BFFF32066
:1004E000FFF7E6FE2846FFF789FF044605EB4600C6
:1004F000FFF784FF804608E002212046FFF7DEFE7A
:10050000092800D0FEE70834A4B24445F4D90024F9
:100510000AE037F814102846FFF72EFF092800D00C
:10052000FEE7AD1C641CA4B2B442F2D3BDE8F041B6
:10053000FFF71ABF7CB50121022000F0B1FD4FF496
:100540008054009400208DF8060002208DF80700EA
:1005500001218DF804108DF805000A4E69463046D9
:1005600000F012F8650000956946304600F00CF87E
:100570002146304600F056F82946304600F052F841
:100580007CBD0000000402402DE9F041002201275B
:100590004FF0030C07FA02F50B682B40AB422CD14D
:1005A000066853000CFA03F4A64306600E79D0F8EF
:1005B00000809E4046EA080606600E79012E01D0B2
:1005C000022E12D18668A64386604E79D0F8088044
:1005D0009E4046EA080686604668AE434660456827
:1005E0008E799640B6B235434560C568A543C5606F
:1005F000CC799C40C3681C43C460521C102AC9D3E8
:10060000BDE8F08110B54B07DB0E9A40C90800EB3E
:100610008100016A0F249C40A1430162016A1143D9
:10062000016210BD018370470148406870470000B7
:10063000340000200A2804D2074931F81020012A8A
:1006400001D000207047044A143A32F8102021F8F3
:100650001020012070470000F4050020FEE7000094
:10066000F0B587B006460121084600F019FD0121CA
:10067000480400F023FD00248DF81A4001208DF875
:100680001B0002258DF819508DF81850082105918E
:100690001B4F05A93846FFF777FF8DF81850042047
:1006A000059005A93846FFF76FFF0722022138465B
:1006B000FFF7A8FF072203213846FFF7A3FF6420B6
:1006C00046430196ADF80840ADF80A40ADF80C403D
:1006D000ADF810400C20ADF80E000A4C01A92046E0
:1006E00001F020FA00F038F8012240F225512046AE
:1006F00001F0FDF90121204601F0C6F907B0F0BD77
:10070000000002400044004070B5114DB5F8E6000D
:1007100060280AD0C02808D04FF4C071884204D0A5
:10072000B0F5906F01D0A5F8E61035F8E60FFFF7A9
:1007300097FF084C00206070A07025F8200CA87965
:10074000052101EB4000E070FFF76EFF606070BDB7
:10075000C00000203C00002008B54FF4A06000F06D
:10076000FFFA26208DF8000001208DF801000321FA
:100770008DF802108DF80300684600F0BDFA08BD40
:1007800070B5144D6878E978884222D3124E134C24
:100790003078B4F8E81088421BD17078032818D15B
:1007A000B078B4F8EC10B0EB410F12D1FFF73CFF7A
:1007B0003179F278743441EA022124F82C1CA9889A
:1007C000411A61856860E08F401CE08700206870F6
:1007D000A87070BD3C00002012060020C000002060
:1007E0002DE9F0411C4E1D4DB078012804D1B5F81B
:1007F000C600401CA5F8C600002777700120B07025
:10080000DFF85C80317898F8000008431BD0124C68
:1008100015F8E80F083420706888010AA170E070AC
:10082000A888010A2171607106212046FFF704FDA6
:10083000A071000AE07188F800702879052101EBA9
:100840004000F0703770BDE8F041034908220831DC
:10085000044801F0DAB900003C000020C00000208C
:10086000250000200044004010B545F2555000F02E
:1008700031F8022000F022F840F6FF7000F024F872
:1008800000F014F8BDE81040AFF3008002494CF6C8
:10089000CC400860704700000030004002494AF632
:1008A000AA200860704700000030004002494AF664
:1008B000AA200860704700000030004001494860ED
:1008C0007047000000300040014988607047000018
:1008D00000300040014908607047000000300040CF
:1008E00070B586B00121084600F0DAFB0121102026
:1008F00000F0F2FB00248DF8164001208DF817005F
:1009000002258DF815508DF81450400204901C4EAD
:1009100004A93046FFF738FE8DF81450690204919F
:1009200004A93046FFF730FE07220A213046FFF7C0
:1009300069FE072209213046FFF764FE4FF4E130DB
:100940000090ADF80440ADF80640ADF80840ADF8B1
:100950000C400C20ADF80A000A4C6946204601F014
:10096000E1F800F011F8012240F22551204601F093
:10097000BEF80121204601F087F806B070BD0000E6
:10098000000002400010014008B54FF4A06000F0E4
:10099000E7F925208DF8000001208DF801008DF881
:1009A00002008DF80300684600F0A6F908BDFEE7D6
:1009B0000248C188491CC180704700002400002003
:1009C0002DE9F0438A4CA0684178002904D0CA1F61
:1009D000082A01D3102902D90120BDE8F08321792A
:1009E000A1F10802F32A01D30320F6E7891EC9B258
:1009F000FFF722FC2179A268114411F8023D4978E1
:100A000043EA0121884201D00320E6E7D0789178BB
:100A100040EA01205179137941EA03215378DFF844
:100A2000D4C10126012B01D0022B3CD1B1F5707F3E
:100A300001D90320D1E74318C82B01D30220CCE70A
:100A4000921C4B0707D0CB085B1C02F8013B054604
:100A50000023002721E0CB08F7E73CF81580B8F128
:100A6000000F08D092F8008006FA03F948EA090856
:100A700082F8008007E092F8008006FA03F928EA7D
:100A8000090882F800805B1CDBB2082B01D300232D
:100A9000521C6D1CADB27F1CBFB28F42DDD3A26869
:100AA0009278521D6271A36808275A78052A10D1DE
:100AB000C82801D3022090E7B1F57F4F02D021B1C1
:100AC00003208AE72CF8106002E000222CF81020A6
:100AD00067715A780F2A23D14218C82A01D30220FD
:100AE0007BE70022DB1D0CEB400C002515E093F8A2
:100AF000008006FA02F918EA090F02D04FF0010847
:100B000001E04FF000082CF8028B521CD2B2082AE8
:100B100001D300225B1C6D1CADB28D42E7D367711F
:100B2000A368DFF8D4C05A78032A01D0042A24D15C
:100B30007D2901D9032050E700EB0108B8F1C80F67
:100B400001D3022049E70CEB40024D009D70DB1CF5
:100B500005460CE0B2F800904FEA192903F8019B12
:100B600092F8009003F8019B921C6D1CADB2A84551
:100B7000F0D8A2689278521D6271A2685378062B51
:100B80000ED1C82801D3022027E72CF810106428C2
:100B900000D32670A0F16403142B00D8667067712F
:100BA0005378102B22D100EB0108B8F1C80F01D304
:100BB000022012E7D21D0CEB400103460CE012F8B4
:100BC000015B2D020D8012F801CB4CEA050CA1F857
:100BD00000C0891C5B1C9BB29845F0D8642800D3E8
:100BE00026706438142800D2667067710020F4E61D
:100BF0002400002050020020C000002010B59AB050
:100C00001D4A1C48906000F58070D060A0F5846497
:100C10000121A4F8C810B4F9CA0060280BD0C0287C
:100C200009D0B0F5C07F06D04FF49063984202D04F
:100C3000A4F8CA301170012901DDFF2902DBA4F8F4
:100C4000C8101170FFF7A0FEC8346421608810FB43
:100C500001F0FFF745FEB4F90230B4F9002007A116
:100C600001A800F0FDFF01A90E4800F0E5FF1AB051
:100C700010BD0000E0030020240000202050726F0F
:100C80006772616D20496E697469616C697A652E5D
:100C90002E2E204164723A25642C20426175643AFC
:100CA000256400000010014070B5104CE088052854
:100CB0001AD9A068E168A160E060A07820710025E1
:100CC000A5700122E27008280DD308780849B1F90F
:100CD000C810884207D1FFF773FE10B1FFF7C2FAC0
:100CE00001E000F047F8E58070BD0000240000201E
:100CF000C00000207047000030B50F23C2780125E6
:100D00000178002A1FD0154A126802F4E062C2F589
:100D1000E062C2F30722C2F10404D3404278A24049
:100D200084781C401443220101F1E02181F8002461
:100D3000007800F01F018D404009800000F1E020A4
:100D4000C0F8005130BD01F01F0085404809800007
:100D500000F1E020C0F8805130BD00000CED00E053
:100D60000249084302490860704700000000FA0584
:100D70000CED00E070B5124D6879801EC1B2A86814
:100D8000FFF75AFA6A79A9680A4402F8020C6A79EC
:100D9000000A114401F8010C00240A4E0BE0A86877
:100DA000015D304600F020FF4021304600F078FE23
:100DB0000028F9D0641C68798442F0DB70BD000023
:100DC0002400002000100140F0B587B00646012144
:100DD000042000F065F90121202000F07DF90024B5
:100DE0008DF81A4001208DF81B0002258DF819504E
:100DF0008DF81850802105911B4F05A93846FFF743
:100E0000C3FB8DF818504020059005A93846FFF720
:100E1000BBFB082206213846FFF7F4FB0822072116
:100E20003846FFF7EFFB642046430196ADF80840D3
:100E3000ADF80A40ADF80C40ADF810400C20ADF80C
:100E40000E000A4C01A9204600F06CFE00F042F8AA
:100E5000012240F22551204600F049FE01212046A2
:100E600000F012FE07B0F0BD00080240001401407F
:100E70002DE9F0411449B1F9CE0060280AD0C0280C
:100E800008D04FF4C072904204D0B0F5906F01D0FA
:100E9000A1F8CE20B1F9CE00FFF796FF00240B4E4B
:100EA000002506F1180726F81450FFF7BDFB04EBE8
:100EB000D471491047F82100641C0C2CF3DB044862
:100EC0008570C570BDE8F081C000002014080020C6
:100ED0004C00002008B54FF4A060FFF741FF472009
:100EE0008DF8000001208DF8010003218DF802101B
:100EF0008DF803006846FFF7FFFE08BD2DE9F041BD
:100F00002D4FB8783978884254D32C4D2878FF2853
:100F100050D16878FF284DD1A878A5284AD1E87823
:100F20006138C4B2062C45D22879254E812828D1B3
:100F3000FFF77AFBAA1D04EB440106EB81010023B5
:100F400012F801CB4FEA0C2CA1F800C012F8018B6B
:100F500048EA0C08A1F80080891C5B1C062BEFDB1B
:100F600004F1500136F81120521C26F811201549C1
:100F700004F1460331F82420821A26F8132041F8A0
:100F800024002879822812D1782000EB440036F81A
:100F900010100C48183820F82410792101EB440176
:100FA000012202EB440236F8111020F81210002042
:100FB000B870F870BDE8F0814C00002014070020E4
:100FC000C00000202C0800202DE9F0412F4C304EAD
:100FD0002046E1784078012906D100F15A0136F81F
:100FE0001120521C26F811200021A1700121E1706E
:100FF000410001F17800254A264F36F91050537808
:1010000037F911C003F161025B0023487933D2B292
:10101000654506D1491C36F913C037F911108C45C6
:101020001DD01A4F0C37FA700DB1012100E00021DC
:10103000B97136F8133083B110231943B9713B7974
:101040001A447B7919441144F971104909220C3171
:1010500000F0DBFD0B2020700EE00023EDE70B49D4
:10106000091DCA700B791A444B791A448A710822F7
:1010700000F0CBFD1D2020706078401C0621B0FBE5
:10108000F1F201FB12006070BDE8F0814C0000201D
:10109000C000002014080020001401407047000028
:1010A000054A002903D01168014311607047116897
:1010B000814311607047000030380240054A002922
:1010C00003D01168014311607047116881431160BA
:1010D0007047000040380240054A002903D01168DB
:1010E000014311607047116881431160704700002F
:1010F0004438024070B5244B196801F00C01234CB0
:1011000000291ED0224E04291DD008291DD00460BC
:10111000196801F0F00109091E4A545C0168E140B8
:1011200041601C6804F4E054A40A145D21FA04F43C
:1011300084601B6803F460435B0BD25CD140C160E8
:1011400070BD0460E4E70660E2E70F4A121F116811
:10115000C1F38055116801F03F0135B1B6FBF1F1E3
:101160001468C4F38814614305E0B4FBF1F114681A
:10117000C4F3881461431268C2F30142521C520046
:10118000B1FBF2F10160C3E7083802400024F4002B
:1011900040787D011400002070470000F0B587B052
:1011A000064601210220FFF77BFF01218804FFF79B
:1011B00085FF00248DF81A4001208DF81B000225C0
:1011C0008DF819508DF81850C10205911B4F05A9D3
:1011D0003846FFF7D9F98DF818506802059005A92F
:1011E0003846FFF7D1F907220A213846FFF70AFAF5
:1011F00007220B213846FFF705FA64204643019683
:10120000ADF80840ADF80A40ADF80C40ADF810401C
:101210000C20ADF80E000A4C01A9204600F082FC1B
:1012200000F040F8012240F22551204600F05FFC1A
:101230000121204600F028FC07B0F0BD0004024068
:101240000048004010B51549B1F9D60060280AD011
:10125000C02808D04FF4C072904204D0B0F5906F0F
:1012600001D0A1F8D620B1F8D600FFF797FF0C4CBB
:101270000020E0702071FFF7D7F9A06004F1200092
:10128000C178027951404279514081710830C1786A
:101290000279514042795140817110BDC000002057
:1012A0006400002008B54FF4A060FFF759FD272027
:1012B0008DF8000001208DF8010003218DF8021047
:1012C0008DF803006846FFF717FD08BD2DE9F041D2
:1012D0003D4EF0783178884273D33C4C2078FF281B
:1012E0006FD16078FF286CD1A078A52869D1FFF76D
:1012F0009BF9E17806F11A039D1F354A30290AD07F
:1013000004DC282911D0292958D109E031292AD013
:10131000322953D10EE01888A2F8560128804DE0FA
:101320005888A2F85601688048E09888A2F85601CB
:10133000A88043E0241D002123781D0201F125032C
:1013400022F813506778A41C2F4322F81370491C0D
:101350000529F1DBB189411A22F8981FF060908AC3
:10136000401C90822AE0217901F0070322F8543FC3
:10137000C1F3C20353808B099380617901F00105A9
:1013800043EA85039380C1F34203D380C1F3021380
:101390001381C9095181A37903F0030441EA44018F
:1013A0005181C3F382019181B189411AA2F846109B
:1013B0003061B2F85A00401CA2F85A000020F070C8
:1013C0003071BDE8F0810000640000204408002076
:1013D000C00000202DE9F047434C444D21462079C0
:1013E0008A78012805D122B9B5F8C010491CA5F8A2
:1013F000C010012806D1012A04D1B5F8C200401C52
:10140000A5F8C2000027E770012626716078401C0D
:101410000321B0FBF1F301FB13016170DFF8C88019
:1014200008F11A0828F81170002001EBC10C0CEB30
:101430000003843335F813303BB138F8113006FA25
:1014400000F943EA090328F81130401C0928EEDBB3
:10145000DFF8949038F9113009F11409244839F96A
:1014600011C063452AD009F11C0209B93026D67093
:10147000012901D12926D670022901D12821D17054
:101480009371190AD171D67817797E4057795F40E8
:101490007E404E40167214490A22303100F0B5FBEE
:1014A00008202070607805F5AA7538F8101029809A
:1014B00039F810106980A880BDE8F0873AB10A4970
:1014C0000822203100F0A1FB1020207006E0064920
:1014D0000822283100F099FB0A202070A07886436A
:1014E000A670E770E8E7000064000020C00000205C
:1014F000004800401CB50021019100912E4A10685F
:1015000040F4803010604FF4A043106800F40030C5
:1015100000900198401C0190009810B901989842E1
:10152000F3D11068800302D50120009000E0009103
:10153000009801283FD120484030016841F0805197
:1015400001601E49086840F4404008601A480830AD
:1015500003680360036843F400430360036843F4D3
:10156000A0530360041F164B2360136843F080737D
:10157000136013689B01FCD50A6842F480320A604C
:101580004A68D203FCD50A6842F400320A604A680D
:101590009203FCD50B4A40F205711160016821F0FD
:1015A00003010160016841F0020101600168C1F3BB
:1015B00081010229FAD11CBD0038024000700040B0
:1015C000195A4007003C02400A2806D2034A491C27
:1015D00022F81010143222F810107047E005002095
:1015E00010B5FFF7E5F90C484168491C41600168F6
:1015F00011B90168491E01600020084931F8102026
:10160000012A04D931F81020521E21F81020401C64
:101610000A28F3DB10BD000034000020F405002090
:1016200010B5164842F210710068B0FBF1F0401E90
:1016300000214FF0E022B0F1807F01D3012007E0CC
:1016400050610F4BF020187091610720106100204D
:1016500000B1FEE7106960F0010010610020094A46
:1016600002F1140302F1280422F8101023F81010DC
:101670002154401C0A28F7DB10BD000000000020A8
:1016800023ED00E0E005002010B51248016841F4A8
:10169000700101601048016841F0010101600E4ACB
:1016A00000210832116002680C4B1A400260031DD1
:1016B0000B4A1A60026822F48022026006480C304D
:1016C0000160FFF717FF03494FF0006080390860A1
:1016D00010BD000088ED00E000380240FFFFF6FE7C
:1016E00010300024F0B587B0064601211020FFF726
:1016F000D7FC01218807FFF7E1FC00248DF81A4090
:1017000001208DF81B0002258DF819508DF8185016
:10171000010205911B4F05A93846FEF735FF8DF8EC
:1017200018508020059005A93846FEF72DFF0822A5
:1017300007213846FEF766FF082211463846FEF7B5
:1017400061FF642046430196ADF80840ADF80A40B9
:10175000ADF80C40ADF810400C20ADF80E000A4C6E
:1017600001A9204600F0DEF900F034F8012240F231
:101770002551204600F0BBF90121204600F084F9F4
:1017800007B0F0BD001002400078004070B50F4D6A
:10179000B5F9DE0060280AD0C02808D04FF4C07127
:1017A000884204D0B0F5906F01D0A5F8DE10B035B6
:1017B000E88DFFF797FF064C0E2020700020607028
:1017C000A0702880FEF730FF606070BDC000002070
:1017D000A000002008B54FF4A060FFF7C1FA522026
:1017E0008DF8000001208DF8010003218DF8021012
:1017F0008DF803006846FFF77FFA08BD70B5194DF4
:101800006878297888422BD317490878FF2827D190
:101810004878FF2824D18878A52821D1C878402885
:101820001ED1091D0020114C0A78130200F132026A
:1018300024F812304E78891C1E4324F81260401C94
:10184000C0B20428F0D3FEF7EFFEA988411A24F8AD
:101850009C1F6860208D401C20850020A870687047
:1018600070BD0000A000002044090020C00000203E
:10187000184919488A78012A04D1B0F8B020521CBE
:10188000A0F8B02000224A7001228A70114900F5A8
:10189000A070083102780A7182784A7102798A71DF
:1018A0008279CA71027A0A74827A4A74007B8874D7
:1018B000C878C8740420CA7C0B5C5A40CA74401CA7
:1018C00080B21228F7D3034915220831034800F0EB
:1018D0009CB90000A0000020C0000020007800405B
:1018E00070B5104C40F22551204600F0E0F840B1B0
:1018F000204600F075F90C4B59784A1C5A700B4A77
:10190000505440F227752946204600F0D0F80028B0
:1019100006D029462046BDE87040002200F0E7B816
:1019200070BD000000780040A000002044090020A5
:1019300070B5164C40F22551204600F0B8F8A8B119
:10194000204600F04DF9C1B2114B0025D87860B1A6
:101950001048B0F9C800884202D0987800B9DD700C
:101960009A78501C9870D8688154DD8040F22775B1
:101970002946204600F09BF8002806D0294620463C
:10198000BDE87040002200F0B2B870BD0010014008
:1019900024000020C000002070B5104C40F22551FA
:1019A000204600F084F840B1204600F019F90C4BB5
:1019B00059784A1C5A700B4A505440F227752946F0
:1019C000204600F074F8002806D029462046BDE8DD
:1019D0007040002200F08BB870BD00000044004051
:1019E0003C0000201206002070B5104C40F225513A
:1019F000204600F05CF840B1204600F0F1F80C4BB6
:101A0000D9784A1CDA700B4A505440F2277529469F
:101A1000204600F04CF8002806D029462046BDE8B4
:101A20007040002200F063B870BD00000048004024
:101A3000640000204408002070B5104C40F225518D
:101A4000204600F034F840B1204600F0C9F80C4BB5
:101A500099784A1C9A700B4A505440F227752946CF
:101A6000204600F024F8002806D029462046BDE88C
:101A70007040002200F03BB870BD0000001401402F
:101A80004C00002014070020002904D0818941F473
:101A9000005181817047818921F400518181704713
:101AA0000246002012880A4200D00120704770B51B
:101AB000002440F66A12C1F3421301F01F0501260B
:101AC00006FA05F2012B0CD0022B0DD0838A1340AD
:101AD000090A8E40008830400BB100B10124204635
:101AE00070BD83891340F3E7038A1340F0E710B514
:101AF00040F66A13C1F3421301F01F040121A14013
:101B0000012B07D0022B07D014303AB102680A43E8
:101B1000026010BD0C30F8E71030F6E702688A4327
:101B2000026010BD7FB504460D46208A20F4405166
:101B3000E88808432082A08941F20C618843A98883
:101B40002A8911436A8902431143A181A08A20F4A2
:101B50004071A8890843A0826846FFF7CBFA1E4867
:101B6000844202D01D48844201D1039800E00298CB
:101B7000A189090408D500EBC00101EB0010296818
:101B80004900B0FBF1F007E000EBC00101EB0010F1
:101B900029688900B0FBF1F06422B0FBF2F1090181
:101BA0000B096FF018056B4300EB8300A3891D043C
:101BB0004FF0320307D503EBC000B0FBF2F000F0AA
:101BC0000700084306E003EB0010B0FBF2F000F062
:101BD0000F00084320817FBD001001400014014028
:101BE0008088C0F308007047C1F308018180704706
:101BF000FEE710B504462046FFF7F6FF8021204699
:101C0000FFF74EFF0028F9D010BD2DE9F04107463F
:101C10000D46164600240BE015F8011B3846FFF769
:101C2000E3FF80213846FFF73BFF0028F9D0641C12
:101C3000B442F1DBBDE8F08170B506460D460024E4
:101C40003046295DFFF7D5FF641C285D0028F7D1D9
:101C500040213046FFF724FF0028F9D070BD000076
:101C60000FB4084B10B504A902AA039800F01CF8A1
:101C7000044602A9002000F0C1F8204610BC5DF81F
:101C800014FB0000FD1D000802E008C8121F08C177
:101C9000002AFAD170477047002001E001C1121FED
:101CA000002AFBD1704700002DE9FF4F89B09B4609
:101CB0000446002506E025280BD05A460B9990478C
:101CC000641C6D1C20780028F5D10DB02846BDE8B5
:101CD000F08F0027B8460122474900E0074314F877
:101CE000013F203B02FA03F00842F7D120782E286A
:101CF00019D114F8010F47F004072A280ED06FF00D
:101D00002F022078A0F1300109290CD808EB8801B6
:101D100002EB410100EB0108641CF2E70A98641C25
:101D200050F8048B0A9020780028CED0642808D080
:101D3000692806D075281ED05A460B9990476D1C0D
:101D400058E00A994FF00A0901C90A91002802DAFD
:101D500040422D2102E0390504D52B218DF82010B9
:101D6000012103E0F90704D02021F7E78A4608AEF5
:101D70000DE00021FAE70A994FF00A0901C90A911A
:101D8000F7E74946FEF72EFA303106F8011D002824
:101D9000F7D1ADEB060000F12009780701D44FF030
:101DA0000108C84502DDA8EB090000E000208046DC
:101DB000002706E008A85A46C05D0B9990476D1CA5
:101DC0007F1C5745F6DB04E030205A460B999047BC
:101DD0006D1CB8F10001A8F10108F5DC05E016F86A
:101DE000010B5A460B9990476D1CB9F10001A9F1FE
:101DF0000109F4DC641C65E7092801000A68531C2A
:101E00000B60107070470000FFF70AFCFEF792FBB2
:101E1000384A394D164664212846FEF74DFB3548B1
:101E2000001D0188491C0180344C01202070FEF700
:101E3000E5FEFFF71DF8FFF705FAFFF7A7FCFEF731
:101E400063FC64210020FFF7BFFB4FF47A7739462B
:101E50000120FFF7B9FB64210220FFF7B5FBC82181
:101E60000320FFF7B1FB79100420FFF7ADFB3946E3
:101E70000520FFF7A9FBFEF7F7FCFEF715FFFFF7BC
:101E80003DF8FFF723FAFFF7B9FCFEF779FC0020D5
:101E9000FEF7D0FB30B1FEF701FD1948016881F46F
:101EA000005101600120FEF7C5FB40B1207830B140
:101EB000324664212846FEF70BFB002020700220EA
:101EC000FEF7B8FB08B1FFF77FF80320FEF7B2FB7F
:101ED00008B1FFF77FFA0420FEF7ACFB08B1FFF76B
:101EE000C7FC0520FEF7A6FB0028C6D0FEF778FC4D
:101EF000C3E7000088010020000001082400002042
:101F0000140402400000C1C081C1400101C3C003EC
:101F1000800241C201C6C006800741C70005C1C595
:101F200081C4400401CCC00C800D41CD000FC1CF55
:101F300081CE400E000AC1CA81CB400B01C9C00945
:101F4000800841C801D8C018801941D9001BC1DBE5
:101F500081DA401A001EC1DE81DF401F01DDC01D95
:101F6000801C41DC0014C1D481D5401501D7C017B5
:101F7000801641D601D2C012801341D30011C1D1C5
:101F800081D0401001F0C030803141F10033C1F305
:101F900081F240320036C1F681F7403701F5C03595
:101FA000803441F4003CC1FC81FD403D01FFC03F55
:101FB000803E41FE01FAC03A803B41FB0039C1F945
:101FC00081F840380028C1E881E9402901EBC02BA5
:101FD000802A41EA01EEC02E802F41EF002DC1ED95
:101FE00081EC402C01E4C024802541E50027C1E7B5
:101FF00081E640260022C1E281E3402301E1C021C5
:10200000802041E001A0C060806141A10063C1A3C4
:1020100081A240620066C1A681A7406701A5C06594
:10202000806441A4006CC1AC81AD406D01AFC06F54
:10203000806E41AE01AAC06A806B41AB0069C1A944
:1020400081A840680078C1B881B9407901BBC07BE4
:10205000807A41BA01BEC07E807F41BF007DC1BD94
:1020600081BC407C01B4C074807541B50077C1B7B4
:1020700081B640760072C1B281B3407301B1C071C4
:10208000807041B00050C190819140510193C05384
:10209000805241920196C056805741970055C19594
:1020A00081944054019CC05C805D419D005FC19F54
:1020B000819E405E005AC19A819B405B0199C05944
:1020C000805841980188C04880494189004BC18BA4
:1020D000818A404A004EC18E818F404F018DC04D94
:1020E000804C418C0044C184818540450187C047B4
:1020F000804641860182C042804341830041C181C4
:10210000818040402421000800000020C000000021
:10211000881C0008E4210008C0000020880D000091
:10212000981C00080095BA0A00000000000000009A
:10213000010203040607080900000000010203046D
:102140000102030406070809000000000000000067
:10215000000000000000000000000000000000007F
:102160000100000000000000010300000001000069
:1021700064000000FFFFA5610105CC26FFFFA561FB
:10218000020600CC26000000100001000000000044
:10219000000000000000000000000000000000003F
:1021A0000000000000000000FFFFA5320105CC2662
:1021B000FFFFA5310105CC26FFFFA5300206000078
:1021C000CC2600005500000000000000FFFFA540E5
:1021D000111122223333444455556666BCBCBCCC35
:0421E00026000000D5
:04000005080001AD41
:00000001FF
