:020000040800F2
:10000000900E0020C1010008F50C00085D060008F4
:10001000AF09000835020008511C0008000000006C
:10002000000000000000000000000000A111000816
:100030006102000800000000A5100008D5150008A6
:10004000DB010008DB010008DB010008DB01000820
:10005000DB010008DB010008DB010008DB01000810
:10006000DB010008DB010008DB010008DB01000800
:10007000DB010008DB010008DB010008DB010008F0
:10008000DB010008DB010008DB010008DB010008E0
:10009000DB010008DB010008DB010008DB010008D0
:1000A000DB010008DB010008DB010008DB010008C0
:1000B000DB010008DB010008DB010008DB010008B0
:1000C000DB010008DB010008DB010008DB010008A0
:1000D000DB01000891190008F9190008491A000805
:1000E000DB010008DB010008DB010008DB01000880
:1000F000DB010008DB010008DB010008DB01000870
:10010000DB010008DB010008DB010008DB0100085F
:10011000DB010008DB010008DB010008DB0100084F
:10012000DB010008DB010008DB010008DB0100083F
:10013000DB010008DB010008DB010008DB0100082F
:10014000DB010008DB010008DB010008DB0100081F
:10015000DB010008DB010008DB010008991A000838
:10016000DB010008DB010008DB010008DB010008FF
:10017000DB010008DB010008DB010008DB010008EF
:10018000DB010008DB01000841190008DB01000861
:10019000DB010008DB010008DB010008DB010008CF
:1001A000DB010008DB010008DB010008DFF80CD0F0
:1001B00000F02EF800480047691E0008900E00204D
:1001C0000648804706480047FEE7FEE7FEE7FEE7F1
:1001D000FEE7FEE7FEE7FEE7FEE7FEE77D16000826
:1001E000AD01000830B50B46014600202022012455
:1001F00009E021FA02F59D4205D303FA02F5491BF5
:1002000004FA02F52844151EA2F10102F1DC30BD0A
:10021000064C074D06E0E06840F0010394E8070053
:1002200098471034AC42F6D3FFF7C4FF48210008CA
:1002300068210008FEE7000030B502464FF6FF7067
:10024000064D07E012F8013B4340DBB2040A35F8E3
:1002500013006040491EC9B2F4D230BD481F0008E7
:100260007047000070B501460F4DA868427842F013
:100270008002427081700321FFF7DEFFA968C87019
:10028000000A08710024094EA868015D304601F09B
:10029000DBFC4021304601F033FC0028F9D0641C1F
:1002A000052CF1DB70BD000024000020001001408F
:1002B00001490860704700000C3C024070B50646DA
:1002C0000025002905D0012927D0022928D04FF484
:1002D000407500F081F809281ED1134C206820F4E5
:1002E00040702060206828432060206820F0F800DB
:1002F0002060206846F0020108432060206840F436
:100300008030206000F068F8216821F0020121604F
:10031000216821F0F801216070BD4FF48075D8E7A5
:100320004FF40075D5E70000103C024009200D494C
:100330000A68D20301D5012070470A68D20601D5A8
:10034000062070470A68D20501D5022070470A6866
:1003500012F0E00F01D00720704709688907FBD52C
:10036000082070470C3C02400248016841F00041FF
:1003700001607047103C024070B505460E4600F023
:100380002BF8092813D10A4C206820F44070206013
:10039000206840F480702060206840F001002060F8
:1003A0002E8000F019F8216821F00101216070BD54
:1003B000103C024005480068002805DA034804495B
:1003C0000C3801600349016070470000103C024096
:1003D00023016745AB89EFCD08B509200090FFF7F1
:1003E000A5FF009002E0FFF7A1FF00909DF800003C
:1003F0000128F8D09DF8000008BD0000014600204B
:10040000A1F100624FF480439A4204D3204808448B
:10041000984201D2082070471E480844984201D2F1
:10042000102070471C480844984201D21820704799
:100430001A480844B0F5803F01D220207047184880
:100440004FF400320844904201D2282070471548EA
:100450000844904201D2302070471348084490422B
:1004600001D23820704711480844904201D2402000
:1004700070470F480844904201D2482070470D4809
:100480000844904201D25020704758207047000025
:1004900000C0FFF70080FFF70040FFF70000FFF704
:1004A0000000FEF70000FCF70000FAF70000F8F784
:1004B0000000F6F70000F4F710B5002305E030F86F
:1004C000024B22F813405B1CDBB28B42F7D310BD0A
:1004D0002DE9F04105460E461746FFF76BFFF32066
:1004E000FFF7E6FE2846FFF789FF044605EB4600C6
:1004F000FFF784FF804608E002212046FFF7DEFE7A
:10050000092800D0FEE70834A4B24445F4D90024F9
:100510000AE037F814102846FFF72EFF092800D00C
:10052000FEE7AD1C641CA4B2B442F2D3BDE8F041B6
:10053000FFF71ABF7CB50121022000F0B5FD4FF492
:100540008054009400208DF8060002208DF80700EA
:1005500001218DF804108DF805000A4E69463046D9
:1005600000F012F8650000956946304600F00CF87E
:100570002146304600F056F82946304600F052F841
:100580007CBD0000000402402DE9F041002201275B
:100590004FF0030C07FA02F50B682B40AB422CD14D
:1005A000066853000CFA03F4A64306600E79D0F8EF
:1005B00000809E4046EA080606600E79012E01D0B2
:1005C000022E12D18668A64386604E79D0F8088044
:1005D0009E4046EA080686604668AE434660456827
:1005E0008E799640B6B235434560C568A543C5606F
:1005F000CC799C40C3681C43C460521C102AC9D3E8
:10060000BDE8F08110B54B07DB0E9A40C90800EB3E
:100610008100016A0F249C40A1430162016A1143D9
:10062000016210BD018370470148406870470000B7
:10063000340000200A2804D2074931F81020012A8A
:1006400001D000207047044A143A32F8102021F8F3
:100650001020012070470000DC050020FEE70000AC
:10066000F0B587B006460121084600F01DFD0121C6
:10067000480400F027FD00248DF81A4001208DF871
:100680001B0002258DF819508DF81850082105918E
:100690001B4F05A93846FFF777FF8DF81850042047
:1006A000059005A93846FFF76FFF0722022138465B
:1006B000FFF7A8FF072203213846FFF7A3FF6420B6
:1006C00046430196ADF80840ADF80A40ADF80C403D
:1006D000ADF810400C20ADF80E000A4C01A92046E0
:1006E00001F050FA00F03EF8012240F22551204678
:1006F00001F02DFA0121204601F0F6F907B0F0BD16
:10070000000002400044004070B5134DB5F8E6000B
:1007100060280AD0C02808D04FF4C071884204D0A5
:10072000B0F5906F01D0A5F8E61035F8E60FFFF7A9
:1007300097FF0A4C0020A070E07025F8340CA879CF
:10074000052101EB40002070FFF76EFF6060BDE8FF
:100750007040034800F02FBFA80000203C0000209C
:10076000FC06002008B54FF4A06000F0F9FA26203E
:100770008DF8000001208DF8010003218DF8021092
:100780008DF80300684600F0B7FA08BD70B5144D47
:10079000A8782978884221D3124E134C3078B4F8C7
:1007A000E81088421AD17078032817D1B078B4F8CD
:1007B000EC10B0EB410F11D1FFF736FF3179F27831
:1007C000883441EA022124F8401CA988411AE182B8
:1007D0006860E08F401CE0870020E87070BD00007A
:1007E0003C000020FC050020A80000202DE9F0417D
:1007F000194D1A49E878012804D1B1F8B200401C1B
:10080000A1F8B2000027AF700120E870144E6A789A
:100810003078104317D0104C11F8E80F08342070CE
:100820004888020AA270E0708888010A217160710C
:1008300006212046FFF700FDA071000AE071307824
:10084000401C30706F70BDE8F04103490822083148
:10085000044801F00ABA00003C000020A800002073
:10086000250000200044004010B545F2555000F02E
:1008700031F8022000F022F840F6FF7000F024F872
:1008800000F014F8BDE81040AFF3008002494CF6C8
:10089000CC400860704700000030004002494AF632
:1008A000AA200860704700000030004002494AF664
:1008B000AA200860704700000030004001494860ED
:1008C0007047000000300040014988607047000018
:1008D00000300040014908607047000000300040CF
:1008E00070B586B00121084600F0DEFB0121102022
:1008F00000F0F6FB00248DF8164001208DF817005B
:1009000002258DF815508DF81450400204901C4EAD
:1009100004A93046FFF738FE8DF81450690204919F
:1009200004A93046FFF730FE07220A213046FFF7C0
:1009300069FE072209213046FFF764FE4FF4E130DB
:100940000090ADF80440ADF80640ADF80840ADF8B1
:100950000C400C20ADF80A000A4C6946204601F014
:1009600011F900F011F8012240F22551204601F062
:10097000EEF80121204601F0B7F806B070BD000086
:10098000000002400010014008B54FF4A06000F0E4
:10099000E7F925208DF8000001208DF801008DF881
:1009A00002008DF80300684600F0A6F908BDFEE7D6
:1009B0000248C188491CC180704700002400002003
:1009C0002DE9F0438A4CA0684178002904D0CA1F61
:1009D000082A01D3102902D90120BDE8F08321792A
:1009E000A1F10802F32A01D30320F6E7891EC9B258
:1009F000FFF722FC2179A268114411F8023D4978E1
:100A000043EA0121884201D00320E6E7D0789178BB
:100A100040EA01205179137941EA03215378DFF844
:100A2000D4C10126012B01D0022B3CD1B1F5707F3E
:100A300001D90320D1E74318C82B01D30220CCE70A
:100A4000921C4B0707D0CB085B1C02F8013B054604
:100A50000023002721E0CB08F7E73CF81580B8F128
:100A6000000F08D092F8008006FA03F948EA090856
:100A700082F8008007E092F8008006FA03F928EA7D
:100A8000090882F800805B1CDBB2082B01D300232D
:100A9000521C6D1CADB27F1CBFB28F42DDD3A26869
:100AA0009278521D6271A36808275A78052A10D1DE
:100AB000C82801D3022090E7B1F57F4F02D021B1C1
:100AC00003208AE72CF8106002E000222CF81020A6
:100AD00067715A780F2A23D14218C82A01D30220FD
:100AE0007BE70022DB1D0CEB400C002515E093F8A2
:100AF000008006FA02F918EA090F02D04FF0010847
:100B000001E04FF000082CF8028B521CD2B2082AE8
:100B100001D300225B1C6D1CADB28D42E7D367711F
:100B2000A368DFF8D4C05A78032A01D0042A24D15C
:100B30007D2901D9032050E700EB0108B8F1C80F67
:100B400001D3022049E70CEB40024D009D70DB1CF5
:100B500005460CE0B2F800904FEA192903F8019B12
:100B600092F8009003F8019B921C6D1CADB2A84551
:100B7000F0D8A2689278521D6271A2685378062B51
:100B80000ED1C82801D3022027E72CF810106428C2
:100B900000D32670A0F16403142B00D8667067712F
:100BA0005378102B22D100EB0108B8F1C80F01D304
:100BB000022012E7D21D0CEB400103460CE012F8B4
:100BC000015B2D020D8012F801CB4CEA050CA1F857
:100BD00000C0891C5B1C9BB29845F0D8642800D3E8
:100BE00026706438142800D2667067710020F4E61D
:100BF0002400002038020020A800002010B59AB080
:100C00001D4A1C48906000F58070D060A0F5846497
:100C10000121A4F8C810B4F9CA0060280BD0C0287C
:100C200009D0B0F5C07F06D04FF49063984202D04F
:100C3000A4F8CA301170012901DDFF2902DBA4F8F4
:100C4000C8101170FFF7A0FEC8346421608810FB43
:100C500001F0FFF745FEB4F90230B4F9002007A116
:100C600001A801F02DF801A90E4801F015F81AB0FD
:100C700010BD0000C8030020240000202050726F27
:100C80006772616D20496E697469616C697A652E5D
:100C90002E2E204164723A25642C20426175643AFC
:100CA000256400000010014070B5104CE088052854
:100CB0001AD9A068E168A160E060A07820710025E1
:100CC000A5700122E27008280DD308780849B1F90F
:100CD000C810884207D1FFF773FE10B1FFF7C2FAC0
:100CE00001E000F047F8E58070BD0000240000201E
:100CF000A80000207047000030B50F23C2780125FE
:100D00000178002A1FD0154A126802F4E062C2F589
:100D1000E062C2F30722C2F10404D3404278A24049
:100D200084781C401443220101F1E02181F8002461
:100D3000007800F01F018D404009800000F1E020A4
:100D4000C0F8005130BD01F01F0085404809800007
:100D500000F1E020C0F8805130BD00000CED00E053
:100D60000249084302490860704700000000FA0584
:100D70000CED00E070B5124D6879801EC1B2A86814
:100D8000FFF75AFA6A79A9680A4402F8020C6A79EC
:100D9000000A114401F8010C00240A4E0BE0A86877
:100DA000015D304600F050FF4021304600F0A8FEC3
:100DB0000028F9D0641C68798442F0DB70BD000023
:100DC0002400002000100140F0B587B00646012144
:100DD000042000F069F90121202000F081F90024AD
:100DE0008DF81A4001208DF81B0002258DF819504E
:100DF0008DF81850802105911B4F05A93846FFF743
:100E0000C3FB8DF818504020059005A93846FFF720
:100E1000BBFB082206213846FFF7F4FB0822072116
:100E20003846FFF7EFFB642046430196ADF80840D3
:100E3000ADF80A40ADF80C40ADF810400C20ADF80C
:100E40000E000A4C01A9204600F09CFE00F046F876
:100E5000012240F22551204600F079FE0121204672
:100E600000F042FE07B0F0BD00080240001401404F
:100E70002DE9F041164DB5F9CE0060280AD0C02802
:100E800008D04FF4C071884204D0B0F5906F01D003
:100E9000A5F8CE10B5F9CE00FFF796FF00240D4E51
:100EA00006F1140704F1780035F8100026F8140054
:100EB000FFF7BAFB04EBD471491047F82100641C1A
:100EC0000A2CEFDB044800218170C170BDE8F0817D
:100ED000A8000020300800204C00002008B54FF486
:100EE000A060FFF73DFF47208DF8000001208DF83E
:100EF000010003218DF802108DF803006846FFF70A
:100F0000FBFE08BD2DE9F0412D4FB8783A789042AC
:100F100054D32C4D2878FF2850D16878FF284DD124
:100F2000A878A5284AD1E8786138C4B2052C45D202
:100F30002879254E812829D1FFF776FBAB1D04EBDC
:100F4000440106EB8102002113F801CB4FEA0C2C7F
:100F5000A2F800C013F8018B48EA0C08A2F8008040
:100F6000921C491C0629EFDB04F1500236F81230BE
:100F70005B1C26F81230DFF854C03CF82420831A9A
:100F800004F1460226F812304CF824002879822811
:100F900012D1782000EB410036F810200B481438AD
:100FA00020F82420792202EB4101012202EB4402C5
:100FB00036F8111020F812100020F870BDE8F0810A
:100FC0004C00002030070020A8000020440800202A
:100FD0002DE9F0412F4C304E2046E1784078012930
:100FE00006D100F15A0136F81120521C26F81120C2
:100FF0000021A1700121E170410001F17800254A32
:10100000264F36F91050537837F911C003F16102B9
:101010005B0023487933D2B2654506D1491C36F9C5
:1010200013C037F911108C451DD01A4F0C37FA70C8
:101030000DB1012100E00021B97136F8133083B100
:1010400010231943B9713B791A447B79194411442F
:10105000F971104909220C3100F007FE09202070B7
:101060000EE00023EDE70B49091DCA700B791A4405
:101070004B791A448A71082200F0F7FD1D20207078
:101080006078401C0521B0FBF1F201FB120060709A
:10109000BDE8F0814C000020A800002030080020AE
:1010A0000014014070470000054A002903D0116870
:1010B000014311607047116881431160704700005F
:1010C00030380240054A002903D0116801431160FD
:1010D000704711688143116070470000403802403A
:1010E000054A002903D01168014311607047116857
:1010F00081431160704700004438024070B5244BB2
:10110000196801F00C01234C00291ED0224E04293D
:101110001DD008291DD00460196801F0F0010909EB
:101120001E4A545C0168E14041601C6804F4E054CC
:10113000A40A145D21FA04F484601B6803F460437C
:101140005B0BD25CD140C16070BD0460E4E7066017
:10115000E2E70F4A121F1168C1F38055116801F0D0
:101160003F0135B1B6FBF1F11468C4F38814614353
:1011700005E0B4FBF1F11468C4F38814614312680C
:10118000C2F30142521C5200B1FBF2F10160C3E70D
:10119000083802400024F40040787D01140000204B
:1011A00070470000F0B587B0064601210220FFF726
:1011B0007BFF01218804FFF785FF00248DF81A408A
:1011C00001208DF81B0002258DF819508DF818505C
:1011D000C10205911B4F05A93846FFF7D5F98DF8D7
:1011E00018506802059005A93846FFF7CDF9072287
:1011F0000A213846FFF706FA07220B213846FFF787
:1012000001FA642046430196ADF80840ADF80A4063
:10121000ADF80C40ADF810400C20ADF80E000A4CB3
:1012200001A9204600F0AEFC00F040F8012240F297
:101230002551204600F08BFC0121204600F054FC93
:1012400007B0F0BD000402400048004010B5154949
:10125000B1F9D60060280AD0C02808D04FF4C07277
:10126000904204D0B0F5906F01D0A1F8D620B1F82B
:10127000D600FFF797FF0C4C0020E0702071FFF7BD
:10128000D3F9A06004F11800C178027911444279C1
:10129000114481710830C1780279114442791144B6
:1012A000817110BDA80000206400002008B54FF433
:1012B000A060FFF755FD27208DF8000001208DF874
:1012C000010003218DF802108DF803006846FFF736
:1012D00013FD08BDF0B52C4DE8782978884252D32B
:1012E0002A490878FF284ED14878FF284BD18878C2
:1012F000A52848D1C87805F11202931F244C302844
:101300000AD004DC28280DD0292836D107E031285E
:101310001CD0322831D108E0108818802DE0508888
:1013200058802AE09088988027E0091D00200A78DC
:10133000130200F1250224F812304E78891C1E4356
:1013400024F81260401C0528F1DB16E0091D00207E
:101350002A222B230E7802EB400746F47F46360AFA
:1013600024F8176011F8016B03EB400746F0FF0605
:1013700024F81760401C0428ECDB34F8C00F401C34
:10138000208000202871F0BD640000205808002053
:10139000A80000202DE9F041324E334A307901286F
:1013A00004D1B2F8AC00401CA2F8AC000024F470E8
:1013B00001253571717801EBC100843002EB4002E8
:1013C000284B123323F81140002032F8024B84B32B
:1013D00005FA00F433F811703C4323F81140401C27
:1013E0000928F2DB1F4833F911200C3030F9113095
:1013F0001E489A4220D0C1F130031A492831CB70DF
:101400008A71140ACC710D792B444D792A441A44FF
:1014100022440A720A2200F028FC7078401C032142
:10142000B0FBF1F201FB1200707008203070BDE8D3
:10143000F081FFE70024CDE7B17839B109490822EE
:10144000183100F012FC1020307006E00549082227
:10145000203100F00AFC0A203070B0788543B57066
:10146000E5E7000064000020A800002000480040DC
:101470001CB50021019100912E4A106840F4803083
:1014800010604FF4A043106800F400300090019801
:10149000401C0190009810B901989842F3D110684F
:1014A000800302D50120009000E0009100980128FF
:1014B0003FD120484030016841F0805101601E4911
:1014C000086840F4404008601A4808300368036028
:1014D000036843F400430360036843F4A0530360CC
:1014E000041F164B2360136843F080731360136866
:1014F0009B01FCD50A6842F480320A604A68D20334
:10150000FCD50A6842F400320A604A689203FCD5AE
:101510000B4A40F205711160016821F0030101607E
:10152000016841F0020101600168C1F381010229F3
:10153000FAD11CBD0038024000700040195A400723
:10154000003C02400A2806D2034A491C22F8101027
:10155000143222F810107047C80500208168002955
:1015600007D040684FF47A72504390FBF1F000B21C
:1015700070470020704730B543685C1844600388AA
:1015800000EB4303B3F90C50641B446084681444BB
:101590008460B3F92050641B84609981018800EB5A
:1015A00041010A840188491C89B201800A2901D3BA
:1015B0000021018030BD00230380438043608360AD
:1015C000002100EB410293811384491C0A29F8DBB6
:1015D0007047000010B5FFF7EBF90C484168491C53
:1015E0004160016811B90168491E01600020084985
:1015F00031F81020012A04D931F81020521E21F8A8
:101600001020401C0A28F3DB10BD0000340000202D
:10161000DC05002010B5164842F210710068B0FBDE
:10162000F1F0401E00214FF0E022B0F1807F01D3A5
:10163000012007E050610F4BF020187091610720E6
:101640001061002000B1FEE7106960F00100106138
:101650000020094A02F1140302F1280422F81010B4
:1016600023F810102154401C0A28F7DB10BD00009D
:101670000000002023ED00E0C805002010B512484E
:10168000016841F4700101601048016841F00101F6
:1016900001600E4A00210832116002680C4B1A40AA
:1016A0000260031D0B4A1A60026822F48022026065
:1016B00006480C300160FFF7DBFE03494FF0006085
:1016C0008039086010BD000088ED00E0003802405D
:1016D000FFFFF6FE10300024F0B587B0064601216A
:1016E0001020FFF7E1FC01218807FFF7EBFC002445
:1016F0008DF81A4001208DF81B0002258DF8195035
:101700008DF81850010205911B4F05A93846FEF7C8
:101710003BFF8DF818508020059005A93846FEF74C
:1017200033FF082207213846FEF76CFF08221146D6
:101730003846FEF767FF642046430196ADF808403F
:10174000ADF80A40ADF80C40ADF810400C20ADF8F3
:101750000E000A4C01A9204600F014FA00F03EF8F1
:10176000012240F22551204600F0F1F901212046E6
:1017700000F0BAF907B0F0BD001002400078004058
:1017800070B5134DB5F9DE0060280AD0C02808D026
:101790004FF4C071884204D0B0F5906F01D0A5F825
:1017A000DE10B5F8DE00FFF797FF0A4C0020A070AE
:1017B000E070288795F8E400052101EB40002070D7
:1017C000FEF732FF6060BDE870400348FFF7F3BEEC
:1017D000A800002098000020580A002008B54FF407
:1017E000A060FFF7BDFA52208DF8000001208DF8AF
:1017F000010003218DF802108DF803006846FFF701
:101800007BFA08BD2DE9F0412B4DA8782978884254
:1018100050D32A4E2A4C3078B4F9E010884249D18E
:101820007078032846D1B078B4F9E410B0EB410FDA
:1018300040D1FEF7F9FEB4F928302386618D618628
:10184000A18DA1863179F27841EA022109B2218580
:10185000AA88821A12B262856860C81AA0854FF4FD
:1018600080664FF44067B14205DABB4203DD00F504
:10187000805CA4F82CC0B94204DDB34202DAA0F5C2
:101880008050A0853AB1A08D4FF47A7110FB01F021
:1018900090FBF2F0E085B4F92C100A48FFF76BFEDC
:1018A0000848FFF75BFEE086608F401C60870020E1
:1018B000E870A870BDE8F081980000205809002069
:1018C000A8000020580A00202DE9F041184D1949C0
:1018D000E878012802D1088F401C08870027AF70E4
:1018E0000120E870144E6A783078104317D0104CFD
:1018F00011F8E00F083420704888020AA270E070E6
:101900008888010A2171607106212046FEF794FC47
:10191000A071000AE0713078401C30706F70BDE833
:10192000F041034908220831044800F09EB9000044
:1019300098000020A800002025000020007800402A
:1019400070B5104C40F22551204600F0E0F840B14F
:10195000204600F075F90C4B99784A1C9A700B4A96
:10196000505440F227752946204600F0D0F8002850
:1019700006D029462046BDE87040002200F0E7B8B6
:1019800070BD000000780040980000205809002039
:1019900070B5164C40F22551204600F0B8F8A8B1B9
:1019A000204600F04DF9C1B2114B0025D87860B146
:1019B0001048B0F9C800884202D0987800B9DD70AC
:1019C0009A78501C9870D8688154DD8040F2277551
:1019D0002946204600F09BF8002806D029462046DC
:1019E000BDE87040002200F0B2B870BD00100140A8
:1019F00024000020A800002070B5104C40F22551B2
:101A0000204600F084F840B1204600F019F90C4B54
:101A100099784A1C9A700B4A505440F2277529460F
:101A2000204600F074F8002806D029462046BDE87C
:101A30007040002200F08BB870BD000000440040F0
:101A40003C000020FC05002070B5104C40F22551F0
:101A5000204600F05CF840B1204600F0F1F80C4B55
:101A6000D9784A1CDA700B4A505440F2277529463F
:101A7000204600F04CF8002806D029462046BDE854
:101A80007040002200F063B870BD000000480040C4
:101A9000640000205808002070B5104C40F2255119
:101AA000204600F034F840B1204600F0C9F80C4B55
:101AB00099784A1C9A700B4A505440F2277529466F
:101AC000204600F024F8002806D029462046BDE82C
:101AD0007040002200F03BB870BD000000140140CF
:101AE0004C00002030070020002904D0818941F4F7
:101AF000005181817047818921F4005181817047B3
:101B00000246002012880A4200D00120704770B5BA
:101B1000002440F66A12C1F3421301F01F050126AA
:101B200006FA05F2012B0CD0022B0DD0838A13404C
:101B3000090A8E40008830400BB100B101242046D4
:101B400070BD83891340F3E7038A1340F0E710B5B3
:101B500040F66A13C1F3421301F01F040121A140B2
:101B6000012B07D0022B07D014303AB102680A4388
:101B7000026010BD0C30F8E71030F6E702688A43C7
:101B8000026010BD7FB504460D46208A20F4405106
:101B9000E88808432082A08941F20C618843A98823
:101BA0002A8911436A8902431143A181A08A20F442
:101BB0004071A8890843A0826846FFF79FFA1E4833
:101BC000844202D01D48844201D1039800E002986B
:101BD000A189090408D500EBC00101EB00102968B8
:101BE0004900B0FBF1F007E000EBC00101EB001091
:101BF00029688900B0FBF1F06422B0FBF2F1090121
:101C00000B096FF018056B4300EB8300A3891D04DB
:101C10004FF0320307D503EBC000B0FBF2F000F049
:101C20000700084306E003EB0010B0FBF2F000F001
:101C30000F00084320817FBD0010014000140140C7
:101C40008088C0F308007047C1F3080181807047A5
:101C5000FEE710B504462046FFF7F6FF8021204638
:101C6000FFF74EFF0028F9D010BD2DE9F0410746DF
:101C70000D46164600240BE015F8011B3846FFF709
:101C8000E3FF80213846FFF73BFF0028F9D0641CB2
:101C9000B442F1DBBDE8F08170B506460D46002484
:101CA0003046295DFFF7D5FF641C285D0028F7D179
:101CB00040213046FFF724FF0028F9D070BD000016
:101CC0000FB4084B10B504A902AA039800F01CF841
:101CD000044602A9002000F0C1F8204610BC5DF8BF
:101CE00014FB00005D1E000802E008C8121F08C1B6
:101CF000002AFAD170477047002001E001C1121F8D
:101D0000002AFBD1704700002DE9FF4F89B09B46A8
:101D10000446002506E025280BD05A460B9990472B
:101D2000641C6D1C20780028F5D10DB02846BDE854
:101D3000F08F0027B8460122474900E0074314F816
:101D4000013F203B02FA03F00842F7D120782E2809
:101D500019D114F8010F47F004072A280ED06FF0AC
:101D60002F022078A0F1300109290CD808EB880156
:101D700002EB410100EB0108641CF2E70A98641CC5
:101D800050F8048B0A9020780028CED0642808D020
:101D9000692806D075281ED05A460B9990476D1CAD
:101DA00058E00A994FF00A0901C90A91002802DA9D
:101DB00040422D2102E0390504D52B218DF8201059
:101DC000012103E0F90704D02021F7E78A4608AE95
:101DD0000DE00021FAE70A994FF00A0901C90A91BA
:101DE000F7E74946FEF7FEF9303106F8011D0028F5
:101DF000F7D1ADEB060000F12009780701D44FF0D0
:101E00000108C84502DDA8EB090000E0002080467B
:101E1000002706E008A85A46C05D0B9990476D1C44
:101E20007F1C5745F6DB04E030205A460B9990475B
:101E30006D1CB8F10001A8F10108F5DC05E016F809
:101E4000010B5A460B9990476D1CB9F10001A9F19D
:101E50000109F4DC641C65E7092801000A68531CC9
:101E60000B60107070470000FFF7D4FBFEF762FBB9
:101E7000304A314F904664213846FEF71DFB2D480D
:101E8000001D0188491C01802C4C01202070FEF7A8
:101E9000B5FEFEF7EDFFFFF7D9F9FFF771FCFEF78E
:101EA00033FC4FF4FA710020FFF74CFB4FF47A71CA
:101EB0000120FFF747FB64210220FFF743FB642169
:101EC0000320FFF73FFBFEF7CFFC1D4D0026FEF77A
:101ED000EBFEFFF717F8FFF7FDF9FFF793FCFEF7AE
:101EE00055FC0020FEF7A6FB50B1FEF7D7FC1549C4
:101EF000086880F40050086028780A2800D92E70FD
:101F00000120FEF797FB38B1207828B142466421C2
:101F10003846FEF7DDFA26700320FEF78BFB00281B
:101F2000D5D0FFF755F8FFF735FAFFF7CDFCFEF7F0
:101F30005DFCCCE7700100200000010824000020B7
:101F400025000020140402400000C1C081C14001EE
:101F500001C3C003800241C201C6C006800741C759
:101F60000005C1C581C4400401CCC00C800D41CD29
:101F7000000FC1CF81CE400E000AC1CA81CB400BF9
:101F800001C9C009800841C801D8C018801941D9C9
:101F9000001BC1DB81DA401A001EC1DE81DF401F59
:101FA00001DDC01D801C41DC0014C1D481D5401569
:101FB00001D7C017801641D601D2C012801341D379
:101FC0000011C1D181D0401001F0C030803141F109
:101FD0000033C1F381F240320036C1F681F7403759
:101FE00001F5C035803441F4003CC1FC81FD403D29
:101FF00001FFC03F803E41FE01FAC03A803B41FBF9
:102000000039C1F981F840380028C1E881E9402948
:1020100001EBC02B802A41EA01EEC02E802F41EF58
:10202000002DC1ED81EC402C01E4C024802541E568
:102030000027C1E781E640260022C1E281E3402378
:1020400001E1C021802041E001A0C060806141A188
:102050000063C1A381A240620066C1A681A7406758
:1020600001A5C065806441A4006CC1AC81AD406D28
:1020700001AFC06F806E41AE01AAC06A806B41ABF8
:102080000069C1A981A840680078C1B881B94079C8
:1020900001BBC07B807A41BA01BEC07E807F41BF58
:1020A000007DC1BD81BC407C01B4C074807541B568
:1020B0000077C1B781B640760072C1B281B3407378
:1020C00001B1C071807041B00050C1908191405108
:1020D0000193C053805241920196C0568057419758
:1020E0000055C19581944054019CC05C805D419D28
:1020F000005FC19F819E405E005AC19A819B405BF8
:102100000199C059805841980188C0488049418947
:10211000004BC18B818A404A004EC18E818F404F57
:10212000018DC04D804C418C0044C1848185404567
:102130000187C047804641860182C0428043418377
:102140000041C181818040406821000800000020DA
:10215000A8000000E81C000810220008A8000020C9
:10216000E80D0000F81C00080095BA0A0000000005
:102170000000000001020304060708090000000037
:10218000010203040102030406070809000000001D
:10219000000000000000000000000000000000003F
:1021A00000000000550100000000000001030000D5
:1021B0000001000064000000FFFFA5610105CC26BE
:1021C000FFFFA561020600CC260000001000010000
:1021D00000000000000000000000000000000000FF
:1021E00000000000FFFFA5320105CC26FFFFA5314E
:1021F0000105CC26FFFFA53002060000CC2600001A
:102200005501000000000000010300000001000073
:04000005080001AD41
:00000001FF
