:020000040800F2
:10000000780E0020C1010008610D00085D0600089F
:100010001B0A000835020008911C000800000000BF
:10002000000000000000000000000000E1110008D6
:100030006102000800000000E51000081516000825
:10004000DB010008DB010008DB010008DB01000820
:10005000DB010008DB010008DB010008DB01000810
:10006000DB010008DB010008DB010008DB01000800
:10007000DB010008DB010008DB010008DB010008F0
:10008000DB010008DB010008DB010008DB010008E0
:10009000DB010008DB010008DB010008DB010008D0
:1000A000DB010008DB010008DB010008DB010008C0
:1000B000DB010008DB010008DB010008DB010008B0
:1000C000DB010008DB010008DB010008DB010008A0
:1000D000DB010008D1190008391A0008891A000844
:1000E000DB010008DB010008DB010008DB01000880
:1000F000DB010008DB010008DB010008DB01000870
:10010000DB010008DB010008DB010008DB0100085F
:10011000DB010008DB010008DB010008DB0100084F
:10012000DB010008DB010008DB010008DB0100083F
:10013000DB010008DB010008DB010008DB0100082F
:10014000DB010008DB010008DB010008DB0100081F
:10015000DB010008DB010008DB010008D91A0008F8
:10016000DB010008DB010008DB010008DB010008FF
:10017000DB010008DB010008DB010008DB010008EF
:10018000DB010008DB01000881190008DB01000821
:10019000DB010008DB010008DB010008DB010008CF
:1001A000DB010008DB010008DB010008DFF80CD0F0
:1001B00000F02EF800480047A91E0008780E002025
:1001C0000648804706480047FEE7FEE7FEE7FEE7F1
:1001D000FEE7FEE7FEE7FEE7FEE7FEE7BD160008E6
:1001E000AD01000830B50B46014600202022012455
:1001F00009E021FA02F59D4205D303FA02F5491BF5
:1002000004FA02F52844151EA2F10102F1DC30BD0A
:10021000064C074D06E0E06840F0010394E8070053
:1002200098471034AC42F6D3FFF7C4FF882100088A
:10023000A8210008FEE7000030B502464FF6FF7027
:10024000064D07E012F8013B4340DBB2040A35F8E3
:1002500013006040491EC9B2F4D230BD881F0008A7
:100260007047000070B501460F4DA868427842F013
:100270008002427081700321FFF7DEFFA968C87019
:10028000000A08710024094EA868015D304601F09B
:10029000FBFC4021304601F053FC0028F9D0641CDF
:1002A000052CF1DB70BD000024000020001001408F
:1002B00001490860704700000C3C024070B50646DA
:1002C0000025002905D0012927D0022928D04FF484
:1002D000407500F081F809281ED1134C206820F4E5
:1002E00040702060206828432060206820F0F800DB
:1002F0002060206846F0020108432060206840F436
:100300008030206000F068F8216821F0020121604F
:10031000216821F0F801216070BD4FF48075D8E7A5
:100320004FF40075D5E70000103C024009200D494C
:100330000A68D20301D5012070470A68D20601D5A8
:10034000062070470A68D20501D5022070470A6866
:1003500012F0E00F01D00720704709688907FBD52C
:10036000082070470C3C02400248016841F00041FF
:1003700001607047103C024070B505460E4600F023
:100380002BF8092813D10A4C206820F44070206013
:10039000206840F480702060206840F001002060F8
:1003A0002E8000F019F8216821F00101216070BD54
:1003B000103C024005480068002805DA034804495B
:1003C0000C3801600349016070470000103C024096
:1003D00023016745AB89EFCD08B509200090FFF7F1
:1003E000A5FF009002E0FFF7A1FF00909DF800003C
:1003F0000128F8D09DF8000008BD0000014600204B
:10040000A1F100624FF480439A4204D3204808448B
:10041000984201D2082070471E480844984201D2F1
:10042000102070471C480844984201D21820704799
:100430001A480844B0F5803F01D220207047184880
:100440004FF400320844904201D2282070471548EA
:100450000844904201D2302070471348084490422B
:1004600001D23820704711480844904201D2402000
:1004700070470F480844904201D2482070470D4809
:100480000844904201D25020704758207047000025
:1004900000C0FFF70080FFF70040FFF70000FFF704
:1004A0000000FEF70000FCF70000FAF70000F8F784
:1004B0000000F6F70000F4F710B5002305E030F86F
:1004C000024B22F813405B1CDBB28B42F7D310BD0A
:1004D0002DE9F04105460E461746FFF76BFFF32066
:1004E000FFF7E6FE2846FFF789FF044605EB4600C6
:1004F000FFF784FF804608E002212046FFF7DEFE7A
:10050000092800D0FEE70834A4B24445F4D90024F9
:100510000AE037F814102846FFF72EFF092800D00C
:10052000FEE7AD1C641CA4B2B442F2D3BDE8F041B6
:10053000FFF71ABF7CB50121022000F0D5FD4FF472
:100540008054009400208DF8060002208DF80700EA
:1005500001218DF804108DF805000A4E69463046D9
:1005600000F012F8650000956946304600F00CF87E
:100570002146304600F056F82946304600F052F841
:100580007CBD0000000402402DE9F041002201275B
:100590004FF0030C07FA02F50B682B40AB422CD14D
:1005A000066853000CFA03F4A64306600E79D0F8EF
:1005B00000809E4046EA080606600E79012E01D0B2
:1005C000022E12D18668A64386604E79D0F8088044
:1005D0009E4046EA080686604668AE434660456827
:1005E0008E799640B6B235434560C568A543C5606F
:1005F000CC799C40C3681C43C460521C102AC9D3E8
:10060000BDE8F08110B54B07DB0E9A40C90800EB3E
:100610008100016A0F249C40A1430162016A1143D9
:10062000016210BD018370470148406870470000B7
:10063000340000200A2804D2074931F81020012A8A
:1006400001D000207047044A143A32F8102021F8F3
:100650001020012070470000DC050020FEE70000AC
:10066000F0B587B006460121084600F03DFD0121A6
:10067000480400F047FD00248DF81A4001208DF851
:100680001B0002258DF819508DF81850082105918E
:100690001B4F05A93846FFF777FF8DF81850042047
:1006A000059005A93846FFF76FFF0722022138465B
:1006B000FFF7A8FF072203213846FFF7A3FF6420B6
:1006C00046430196ADF80840ADF80A40ADF80C403D
:1006D000ADF810400C20ADF80E000A4C01A92046E0
:1006E00001F070FA00F03EF8012240F22551204658
:1006F00001F04DFA0121204601F016FA07B0F0BDD5
:10070000000002400044004070B5134DB5F8E6000B
:1007100060280AD0C02808D04FF4C071884204D0A5
:10072000B0F5906F01D0A5F8E61035F8E60FFFF7A9
:1007300097FF0A4C0020A070E07025F89A0CA87969
:10074000052101EB40002070FFF76EFF6060BDE8FF
:100750007040034800F04FBFA80000203C0000207C
:10076000FC06002008B54FF4A06000F02FFB262007
:100770008DF8000001208DF8010003218DF8021092
:100780008DF80300684600F0EDFA08BD2DE9F04150
:100790002D4DA8782978884254D32C4E2C4C307893
:1007A000B4F8E81088424DD1707803284AD1B07867
:1007B000B4F8EC10B0EB410F44D1FFF735FF34F83B
:1007C0003C1F218162886281A288A2813279F378FC
:1007D00042EA03222280AB88C31A9BB2638068601E
:1007E000501AA0803C3C4FF480664FF44067B24200
:1007F00005D2B94203D900F5805CA4F840C0BA42E2
:1008000005D9B14203D2A0F58050A4F8400043B10D
:10081000B4F840004FF47A714843B0FBF3F0A4F809
:10082000420034F93E2F0B48B4F9021000F0C3FE29
:10083000084800F0B3FEA081208A401C20820020DE
:10084000E870A870BDE8F0813C000020FC050020A5
:10085000A8000020FC0600202DE9F041194D1A499E
:10086000E878012804D1B1F84C00401CA1F84C00F4
:100870000027AF700120E870144E6A78307810437A
:1008800017D0104C11F8E80F083420704888020A7D
:10089000A270E0708888010A2171607106212046EB
:1008A000FFF7CAFCA071000AE0713078401C30707C
:1008B0006F70BDE8F041034908220831044801F097
:1008C000F4B900003C000020A80000202500002012
:1008D0000044004010B545F2555000F031F80220B8
:1008E00000F022F840F6FF7000F024F800F014F851
:1008F000BDE81040AFF3008002494CF6CC400860E0
:10090000704700000030004002494AF6AA20086003
:10091000704700000030004002494AF6AA200860F3
:1009200070470000003000400149486070470000F7
:1009300000300040014988607047000000300040EE
:1009400001490860704700000030004070B586B073
:100950000121084600F0C8FB0121102000F0E0FB57
:1009600000248DF8164001208DF8170002258DF81F
:1009700015508DF81450400204901C4E04A93046C6
:10098000FFF702FE8DF814506902049104A9304665
:10099000FFF7FAFD07220A213046FFF733FE072250
:1009A00009213046FFF72EFE4FF4E1300090ADF8FC
:1009B0000440ADF80640ADF80840ADF80C400C20FE
:1009C000ADF80A000A4C6946204601F0FBF800F039
:1009D00011F8012240F22551204601F0D8F80121FA
:1009E000204601F0A1F806B070BD000000000240F2
:1009F0000010014008B54FF4A06000F0E7F9252091
:100A00008DF8000001208DF801008DF802008DF8AE
:100A10000300684600F0A6F908BDFEE70248C18859
:100A2000491CC18070470000240000202DE9F043DC
:100A30008A4CA0684178002904D0CA1F082A01D333
:100A4000102902D90120BDE8F0832179A1F1080223
:100A5000F32A01D30320F6E7891EC9B2FFF7ECFBA6
:100A60002179A268114411F8023D497843EA012135
:100A7000884201D00320E6E7D078917840EA01204F
:100A80005179137941EA03215378DFF8D4C1012663
:100A9000012B01D0022B3CD1B1F5707F01D903208D
:100AA000D1E74318C82B01D30220CCE7921C4B0797
:100AB00007D0CB085B1C02F8013B0546002300274A
:100AC00021E0CB08F7E73CF81580B8F1000F08D01B
:100AD00092F8008006FA03F948EA090882F80080D3
:100AE00007E092F8008006FA03F928EA090882F87C
:100AF00000805B1CDBB2082B01D30023521C6D1C51
:100B0000ADB27F1CBFB28F42DDD3A2689278521D76
:100B10006271A36808275A78052A10D1C82801D322
:100B2000022090E7B1F57F4F02D021B103208AE780
:100B30002CF8106002E000222CF8102067715A781F
:100B40000F2A23D14218C82A01D302207BE70022B2
:100B5000DB1D0CEB400C002515E093F8008006FA35
:100B600002F918EA090F02D04FF0010801E04FF036
:100B700000082CF8028B521CD2B2082A01D30022A2
:100B80005B1C6D1CADB28D42E7D36771A368DFF8C3
:100B9000D4C05A78032A01D0042A24D17D2901D94E
:100BA000032050E700EB0108B8F1C80F01D3022081
:100BB00049E70CEB40024D009D70DB1C05460CE044
:100BC000B2F800904FEA192903F8019B92F80090BF
:100BD00003F8019B921C6D1CADB2A845F0D8A26829
:100BE0009278521D6271A2685378062B0ED1C828E4
:100BF00001D3022027E72CF81010642800D32670B8
:100C0000A0F16403142B00D8667067715378102B21
:100C100022D100EB0108B8F1C80F01D3022012E77E
:100C2000D21D0CEB400103460CE012F8015B2D02D3
:100C30000D8012F801CB4CEA050CA1F800C0891C0C
:100C40005B1C9BB29845F0D8642800D326706438AA
:100C5000142800D2667067710020F4E6240000209A
:100C600038020020A800002010B59AB01D4A1C4888
:100C7000906000F58070D060A0F584640121A4F834
:100C8000C810B4F9CA0060280BD0C02809D0B0F54C
:100C9000C07F06D04FF49063984202D0A4F8CA30C7
:100CA0001170012901DDFF2902DBA4F8C8101170C1
:100CB000FFF7A0FEC8346421608810FB01F0FFF745
:100CC00045FEB4F90230B4F9002007A101A801F0F3
:100CD00017F801A90E4800F0FFFF1AB010BD000080
:100CE000C8030020240000202050726F6772616DDD
:100CF00020496E697469616C697A652E2E2E2041D7
:100D000064723A25642C20426175643A25640000BF
:100D10000010014070B5104CE08805281AD9A06871
:100D2000E168A160E060A07820710025A570012233
:100D3000E27008280DD308780849B1F9C810884234
:100D400007D1FFF773FE10B1FFF78CFA01E000F056
:100D500047F8E58070BD000024000020A8000020B6
:100D60007047000030B50F23C27801250178002AB2
:100D70001FD0154A126802F4E062C2F5E062C2F3C5
:100D80000722C2F10404D3404278A24084781C4078
:100D90001443220101F1E02181F80024007800F0E1
:100DA0001F018D404009800000F1E020C0F8005193
:100DB00030BD01F01F0085404809800000F1E020AF
:100DC000C0F8805130BD00000CED00E0024908433E
:100DD00002490860704700000000FA050CED00E0D1
:100DE00070B5124D6879801EC1B2A868FFF724FA69
:100DF0006A79A9680A4402F8020C6A79000A114467
:100E000001F8010C00240A4E0BE0A868015D304691
:100E100000F03AFF4021304600F092FE0028F9D061
:100E2000641C68798442F0DB70BD0000240000205F
:100E300000100140F0B587B006460121042000F003
:100E400053F90121202000F06BF900248DF81A409D
:100E500001208DF81B0002258DF819508DF81850CF
:100E6000802105911B4F05A93846FFF78DFB8DF8B2
:100E700018504020059005A93846FFF785FB082249
:100E800006213846FFF7BEFB082207213846FFF748
:100E9000B9FB642046430196ADF80840ADF80A401E
:100EA000ADF80C40ADF810400C20ADF80E000A4C27
:100EB00001A9204600F086FE00F03CF8012240F235
:100EC0002551204600F063FE0121204600F02CFE53
:100ED00007B0F0BD000802400014014010B5124CEC
:100EE000B4F9CE0060280AD0C02808D04FF4C071F1
:100EF000884204D0B0F5906F01D0A4F8CE10B4F9B8
:100F0000CE00FFF797FF0020084900F1780234F87F
:100F1000122021F81020401C0A28F6DB044900208A
:100F20008870C87010BD0000A800002030080020A4
:100F30004C00002008B54FF4A060FFF747FF4720A2
:100F40008DF8000001208DF8010003218DF80210BA
:100F50008DF803006846FFF705FF08BDF0B5254F83
:100F6000B9783A78914244D3234D2978FF2940D16A
:100F70006978FF293DD1A978A5293AD1E978613965
:100F8000CBB2052B35D229791C4E81291AD1AA1D45
:100F900003EB430006EB8001002012F8014B240212
:100FA0000C8012F801CB4CEA040CA1F800C0891C9B
:100FB000401C0628F1DB03F1500136F81120521CC9
:100FC00026F811202979822911D1782101EB4001DD
:100FD00036F811200A4921F82320792202EB40003B
:100FE000012202EB430236F8100021F81200002023
:100FF000F870F0BD4C00002030070020A800002051
:10100000300800202DE9F047324C334F2146E0787C
:101010004978012806D101F15A0037F81020521CF6
:1010200027F810200020A0704FF0010C84F803C0B6
:10103000284A7820DFF8A480537800EB41001E4650
:101040006133DAB237F9105038F921907923244806
:1010500003EB46034D4507D10CEB410137F9136013
:1010600038F911108E421DD01A4E0C36F2700DB1A7
:10107000012100E00021B17137F8133083B1102352
:101080001943B17133791A44737919441144F171D8
:10109000104909220C3100F008FE092020700EE0F2
:1010A0000023EDE70B49091DCA700B791A444B79EF
:1010B0001A448A71082200F0F8FD1D202070607823
:1010C000401C0521B0FBF1F201FB12006070BDE88D
:1010D000F08700004C000020A8000020300800200D
:1010E0000014014070470000054A002903D0116830
:1010F000014311607047116881431160704700001F
:1011000030380240054A002903D0116801431160BC
:1011100070471168814311607047000040380240F9
:10112000054A002903D01168014311607047116816
:1011300081431160704700004438024070B5244B71
:10114000196801F00C01234C00291ED0224E0429FD
:101150001DD008291DD00460196801F0F0010909AB
:101160001E4A545C0168E14041601C6804F4E0548C
:10117000A40A145D21FA04F484601B6803F460433C
:101180005B0BD25CD140C16070BD0460E4E70660D7
:10119000E2E70F4A121F1168C1F38055116801F090
:1011A0003F0135B1B6FBF1F11468C4F38814614313
:1011B00005E0B4FBF1F11468C4F3881461431268CC
:1011C000C2F30142521C5200B1FBF2F10160C3E7CD
:1011D000083802400024F40040787D01140000200B
:1011E00070470000F0B587B0064601210220FFF7E6
:1011F0007BFF01218804FFF785FF00248DF81A404A
:1012000001208DF81B0002258DF819508DF818501B
:10121000C10205911B4F05A93846FFF7B5F98DF8B6
:1012200018506802059005A93846FFF7ADF9072266
:101230000A213846FFF7E6F907220B213846FFF767
:10124000E1F9642046430196ADF80840ADF80A4044
:10125000ADF80C40ADF810400C20ADF80E000A4C73
:1012600001A9204600F0AEFC00F040F8012240F257
:101270002551204600F08BFC0121204600F054FC53
:1012800007B0F0BD000402400048004010B5154909
:10129000B1F9D60060280AD0C02808D04FF4C07237
:1012A000904204D0B0F5906F01D0A1F8D620B1F8EB
:1012B000D600FFF797FF0C4C0020E0702071FFF77D
:1012C000B3F9A06004F11800C178027911444279A1
:1012D000114481710830C178027911444279114476
:1012E000817110BDA80000206400002008B54FF4F3
:1012F000A060FFF76BFD27208DF8000001208DF81E
:10130000010003218DF802108DF803006846FFF7F5
:1013100029FD08BDF0B52C4DE8782978884252D3D4
:101320002A490878FF284ED14878FF284BD1887881
:10133000A52848D1C87805F11202931F244C302803
:101340000AD004DC28280DD0292836D107E031281E
:101350001CD0322831D108E0108818802DE0508848
:1013600058802AE09088988027E0091D00200A789C
:10137000130200F1250224F812304E78891C1E4316
:1013800024F81260401C0528F1DB16E0091D00203E
:101390002A222B230E7802EB400746F47F46360ABA
:1013A00024F8176011F8016B03EB400746F0FF06C5
:1013B00024F81760401C0428ECDB34F8C00F401CF4
:1013C000208000202871F0BD640000204408002027
:1013D000A80000202DE9F041324E334A307901282F
:1013E00004D1B2F8AC00401CA2F8AC000024F470A8
:1013F00001253571717801EBC100843002EB4002A8
:10140000284B123323F81140002032F8024B84B3EA
:1014100005FA00F433F811703C4323F81140401CE6
:101420000928F2DB1F4833F911200C3030F9113054
:101430001E489A4220D0C1F130031A492831CB709E
:101440008A71140ACC710D792B444D792A441A44BF
:1014500022440A720A2200F028FC7078401C032102
:10146000B0FBF1F201FB1200707008203070BDE893
:10147000F081FFE70024CDE7B17839B109490822AE
:10148000183100F012FC1020307006E005490822E7
:10149000203100F00AFC0A203070B0788543B57026
:1014A000E5E7000064000020A8000020004800409C
:1014B0001CB50021019100912E4A106840F4803043
:1014C00010604FF4A043106800F4003000900198C1
:1014D000401C0190009810B901989842F3D110680F
:1014E000800302D50120009000E0009100980128BF
:1014F0003FD120484030016841F0805101601E49D1
:10150000086840F4404008601A48083003680360E7
:10151000036843F400430360036843F4A05303608B
:10152000041F164B2360136843F080731360136825
:101530009B01FCD50A6842F480320A604A68D203F3
:10154000FCD50A6842F400320A604A689203FCD56E
:101550000B4A40F205711160016821F0030101603E
:10156000016841F0020101600168C1F381010229B3
:10157000FAD11CBD0038024000700040195A4007E3
:10158000003C02400A2806D2034A491C22F81010E7
:10159000143222F810107047C80500208168002915
:1015A00007D040684FF47A72504390FBF1F000B2DC
:1015B00070470020704730B543685C18446003886A
:1015C00000EB4303B3F90C50641B4460846814447B
:1015D0008460B3F92050641B84609981018800EB1A
:1015E00041010A840188491C89B201800A2901D37A
:1015F0000021018030BD002303804380436083606D
:10160000002100EB410293811384491C0A29F8DB75
:101610007047000010B5FFF701FA0C484168491CFB
:101620004160016811B90168491E01600020084944
:1016300031F81020012A04D931F81020521E21F867
:101640001020401C0A28F3DB10BD000034000020ED
:10165000DC05002010B5164842F210710068B0FB9E
:10166000F1F0401E00214FF0E022B0F1807F01D365
:10167000012007E050610F4BF020187091610720A6
:101680001061002000B1FEE7106960F001001061F8
:101690000020094A02F1140302F1280422F8101074
:1016A00023F810102154401C0A28F7DB10BD00005D
:1016B0000000002023ED00E0C805002010B512480E
:1016C000016841F4700101601048016841F00101B6
:1016D00001600E4A00210832116002680C4B1A406A
:1016E0000260031D0B4A1A60026822F48022026025
:1016F00006480C300160FFF7DBFE03494FF0006045
:101700008039086010BD000088ED00E0003802401C
:10171000FFFFF6FE10300024F0B587B00646012129
:101720001020FFF7E1FC01218807FFF7EBFC002404
:101730008DF81A4001208DF81B0002258DF81950F4
:101740008DF81850010205911B4F05A93846FEF788
:101750001BFF8DF818508020059005A93846FEF72C
:1017600013FF082207213846FEF74CFF08221146D6
:101770003846FEF747FF642046430196ADF808401F
:10178000ADF80A40ADF80C40ADF810400C20ADF8B3
:101790000E000A4C01A9204600F014FA00F03EF8B1
:1017A000012240F22551204600F0F1F901212046A6
:1017B00000F0BAF907B0F0BD001002400078004018
:1017C00070B5134DB5F9DE0060280AD0C02808D0E6
:1017D0004FF4C071884204D0B0F5906F01D0A5F8E5
:1017E000DE10B5F8DE00FFF797FF0A4C0020A0706E
:1017F000E070288795F8E400052101EB4000207097
:10180000FEF712FF6060BDE870400348FFF7F3BECB
:10181000A800002098000020440A002008B54FF4DA
:10182000A060FFF7D3FA52208DF8000001208DF858
:10183000010003218DF802108DF803006846FFF7C0
:1018400091FA08BD2DE9F0412B4DA87829788842FE
:1018500050D32A4E2A4C3078B4F9E010884249D14E
:101860007078032846D1B078B4F9E410B0EB410F9A
:1018700040D1FEF7D9FEB4F928302386618D618608
:10188000A18DA1863179F27841EA022109B2218540
:10189000AA88821A12B262856860C81AA0854FF4BD
:1018A00080664FF44067B14205DABB4203DD00F5C4
:1018B000805CA4F82CC0B94204DDB34202DAA0F582
:1018C0008050A0853AB1A08D4FF47A7110FB01F0E1
:1018D00090FBF2F0E085B4F92C100A48FFF76BFE9C
:1018E0000848FFF75BFEE086608F401C60870020A1
:1018F000E870A870BDE8F08198000020440900203D
:10190000A8000020440A00202DE9F041184D194993
:10191000E878012802D1088F401C08870027AF70A3
:101920000120E870144E6A783078104317D0104CBC
:1019300011F8E00F083420704888020AA270E070A5
:101940008888010A2171607106212046FEF774FC27
:10195000A071000AE0713078401C30706F70BDE8F3
:10196000F041034908220831044800F09EB9000004
:1019700098000020A80000202500002000780040EA
:1019800070B5104C40F22551204600F0E0F840B10F
:10199000204600F075F90C4B99784A1C9A700B4A56
:1019A000505440F227752946204600F0D0F8002810
:1019B00006D029462046BDE87040002200F0E7B876
:1019C00070BD00000078004098000020440900200D
:1019D00070B5164C40F22551204600F0B8F8A8B179
:1019E000204600F04DF9C1B2114B0025D87860B106
:1019F0001048B0F9C800884202D0987800B9DD706C
:101A00009A78501C9870D8688154DD8040F2277510
:101A10002946204600F09BF8002806D0294620469B
:101A2000BDE87040002200F0B2B870BD0010014067
:101A300024000020A800002070B5104C40F2255171
:101A4000204600F084F840B1204600F019F90C4B14
:101A500099784A1C9A700B4A505440F227752946CF
:101A6000204600F074F8002806D029462046BDE83C
:101A70007040002200F08BB870BD000000440040B0
:101A80003C000020FC05002070B5104C40F22551B0
:101A9000204600F05CF840B1204600F0F1F80C4B15
:101AA000D9784A1CDA700B4A505440F227752946FF
:101AB000204600F04CF8002806D029462046BDE814
:101AC0007040002200F063B870BD00000048004084
:101AD000640000204408002070B5104C40F22551ED
:101AE000204600F034F840B1204600F0C9F80C4B15
:101AF00099784A1C9A700B4A505440F2277529462F
:101B0000204600F024F8002806D029462046BDE8EB
:101B10007040002200F03BB870BD0000001401408E
:101B20004C00002030070020002904D0818941F4B6
:101B3000005181817047818921F400518181704772
:101B40000246002012880A4200D00120704770B57A
:101B5000002440F66A12C1F3421301F01F0501266A
:101B600006FA05F2012B0CD0022B0DD0838A13400C
:101B7000090A8E40008830400BB100B10124204694
:101B800070BD83891340F3E7038A1340F0E710B573
:101B900040F66A13C1F3421301F01F040121A14072
:101BA000012B07D0022B07D014303AB102680A4348
:101BB000026010BD0C30F8E71030F6E702688A4387
:101BC000026010BD7FB504460D46208A20F44051C6
:101BD000E88808432082A08941F20C618843A988E3
:101BE0002A8911436A8902431143A181A08A20F402
:101BF0004071A8890843A0826846FFF79FFA1E48F3
:101C0000844202D01D48844201D1039800E002982A
:101C1000A189090408D500EBC00101EB0010296877
:101C20004900B0FBF1F007E000EBC00101EB001050
:101C300029688900B0FBF1F06422B0FBF2F10901E0
:101C40000B096FF018056B4300EB8300A3891D049B
:101C50004FF0320307D503EBC000B0FBF2F000F009
:101C60000700084306E003EB0010B0FBF2F000F0C1
:101C70000F00084320817FBD001001400014014087
:101C80008088C0F308007047C1F308018180704765
:101C9000FEE710B504462046FFF7F6FF80212046F8
:101CA000FFF74EFF0028F9D010BD2DE9F04107469F
:101CB0000D46164600240BE015F8011B3846FFF7C9
:101CC000E3FF80213846FFF73BFF0028F9D0641C72
:101CD000B442F1DBBDE8F08170B506460D46002444
:101CE0003046295DFFF7D5FF641C285D0028F7D139
:101CF00040213046FFF724FF0028F9D070BD0000D6
:101D00000FB4084B10B504A902AA039800F01CF800
:101D1000044602A9002000F0C1F8204610BC5DF87E
:101D200014FB00009D1E000802E008C8121F08C135
:101D3000002AFAD170477047002001E001C1121F4C
:101D4000002AFBD1704700002DE9FF4F89B09B4668
:101D50000446002506E025280BD05A460B999047EB
:101D6000641C6D1C20780028F5D10DB02846BDE814
:101D7000F08F0027B8460122474900E0074314F8D6
:101D8000013F203B02FA03F00842F7D120782E28C9
:101D900019D114F8010F47F004072A280ED06FF06C
:101DA0002F022078A0F1300109290CD808EB880116
:101DB00002EB410100EB0108641CF2E70A98641C85
:101DC00050F8048B0A9020780028CED0642808D0E0
:101DD000692806D075281ED05A460B9990476D1C6D
:101DE00058E00A994FF00A0901C90A91002802DA5D
:101DF00040422D2102E0390504D52B218DF8201019
:101E0000012103E0F90704D02021F7E78A4608AE54
:101E10000DE00021FAE70A994FF00A0901C90A9179
:101E2000F7E74946FEF7DEF9303106F8011D0028D4
:101E3000F7D1ADEB060000F12009780701D44FF08F
:101E40000108C84502DDA8EB090000E0002080463B
:101E5000002706E008A85A46C05D0B9990476D1C04
:101E60007F1C5745F6DB04E030205A460B9990471B
:101E70006D1CB8F10001A8F10108F5DC05E016F8C9
:101E8000010B5A460B9990476D1CB9F10001A9F15D
:101E90000109F4DC641C65E7092801000A68531C89
:101EA0000B60107070470000FFF7D4FBFEF742FB99
:101EB000304A314F904664213846FEF7FDFA2D48EE
:101EC000001D0188491C01802C4C01202070FEF768
:101ED000CBFEFFF703F8FFF7D9F9FFF771FCFEF728
:101EE00013FC4FF4FA710020FFF74CFB4FF47A71AA
:101EF0000120FFF747FB64210220FFF743FB642129
:101F00000320FFF73FFBFEF7E5FC1D4D0026FEF723
:101F100001FFFFF723F8FFF7FDF9FFF793FCFEF74A
:101F200035FC0020FEF786FB50B1FEF7EDFC1549AD
:101F3000086880F40050086028780A2800D92E70BC
:101F40000120FEF777FB38B1207828B142466421A2
:101F50003846FEF7BDFA26700320FEF76BFB00281B
:101F6000D5D0FFF74FF8FFF735FAFFF7CDFCFEF7B6
:101F700073FCCCE770010020000001082400002061
:101F800025000020140402400000C1C081C14001AE
:101F900001C3C003800241C201C6C006800741C719
:101FA0000005C1C581C4400401CCC00C800D41CDE9
:101FB000000FC1CF81CE400E000AC1CA81CB400BB9
:101FC00001C9C009800841C801D8C018801941D989
:101FD000001BC1DB81DA401A001EC1DE81DF401F19
:101FE00001DDC01D801C41DC0014C1D481D5401529
:101FF00001D7C017801641D601D2C012801341D339
:102000000011C1D181D0401001F0C030803141F1C8
:102010000033C1F381F240320036C1F681F7403718
:1020200001F5C035803441F4003CC1FC81FD403DE8
:1020300001FFC03F803E41FE01FAC03A803B41FBB8
:102040000039C1F981F840380028C1E881E9402908
:1020500001EBC02B802A41EA01EEC02E802F41EF18
:10206000002DC1ED81EC402C01E4C024802541E528
:102070000027C1E781E640260022C1E281E3402338
:1020800001E1C021802041E001A0C060806141A148
:102090000063C1A381A240620066C1A681A7406718
:1020A00001A5C065806441A4006CC1AC81AD406DE8
:1020B00001AFC06F806E41AE01AAC06A806B41ABB8
:1020C0000069C1A981A840680078C1B881B9407988
:1020D00001BBC07B807A41BA01BEC07E807F41BF18
:1020E000007DC1BD81BC407C01B4C074807541B528
:1020F0000077C1B781B640760072C1B281B3407338
:1021000001B1C071807041B00050C19081914051C7
:102110000193C053805241920196C0568057419717
:102120000055C19581944054019CC05C805D419DE7
:10213000005FC19F819E405E005AC19A819B405BB7
:102140000199C059805841980188C0488049418907
:10215000004BC18B818A404A004EC18E818F404F17
:10216000018DC04D804C418C0044C1848185404527
:102170000187C047804641860182C0428043418337
:102180000041C18181804040A8210008000000205A
:10219000A8000000281D000850220008A800002008
:1021A000D00D0000381D00080095BA0A000000009C
:1021B00000000000010203040607080900000000F7
:1021C00001020304010203040607080900000000DD
:1021D00000000000000000000000000000000000FF
:1021E0000000000055010000000000000103000095
:1021F0000001000064000000FFFFA5610105CC267E
:10220000FFFFA561020600CC2600000010000100BF
:1022100000000000000000000000000000000000BE
:1022200000000000FFFFA5320105CC26FFFFA5310D
:102230000105CC26FFFFA53002060000CC260000D9
:102240005501000000000000010300000001000033
:04000005080001AD41
:00000001FF
