:020000040800F2
:10000000700E0020C1010008610D00085D060008A7
:100010001B0A000835020008911B000800000000C0
:100020000000000000000000000000000D110008AA
:10003000610200080000000011100008DD14000833
:10004000DB010008DB010008DB010008DB01000820
:10005000DB010008DB010008DB010008DB01000810
:10006000DB010008DB010008DB010008DB01000800
:10007000DB010008DB010008DB010008DB010008F0
:10008000DB010008DB010008DB010008DB010008E0
:10009000DB010008DB010008DB010008DB010008D0
:1000A000DB010008DB010008DB010008DB010008C0
:1000B000DB010008DB010008DB010008DB010008B0
:1000C000DB010008DB010008DB010008DB010008A0
:1000D000DB010008991800080119000851190008EF
:1000E000DB010008DB010008DB010008DB01000880
:1000F000DB010008DB010008DB010008DB01000870
:10010000DB010008DB010008DB010008DB0100085F
:10011000DB010008DB010008DB010008DB0100084F
:10012000DB010008DB010008DB010008DB0100083F
:10013000DB010008DB010008DB010008DB0100082F
:10014000DB010008DB010008DB010008DB0100081F
:10015000DB010008DB010008DB010008A119000831
:10016000DB010008DB010008DB010008DB010008FF
:10017000DB010008DB010008DB010008DB010008EF
:10018000DB010008DB01000849180008DB0100085A
:10019000DB010008DB010008DB010008DB010008CF
:1001A000DB010008DB010008DB010008DFF80CD0F0
:1001B00000F02EF800480047A91D0008700E00202E
:1001C0000648804706480047FEE7FEE7FEE7FEE7F1
:1001D000FEE7FEE7FEE7FEE7FEE7FEE7851500081F
:1001E000AD01000830B50B46014600202022012455
:1001F00009E021FA02F59D4205D303FA02F5491BF5
:1002000004FA02F52844151EA2F10102F1DC30BD0A
:10021000064C074D06E0E06840F0010394E8070053
:1002200098471034AC42F6D3FFF7C4FF882000088B
:10023000A8200008FEE7000030B502464FF6FF7028
:10024000064D07E012F8013B4340DBB2040A35F8E3
:1002500013006040491EC9B2F4D230BD881E0008A8
:100260007047000070B501460F4DA868427842F013
:100270008002427081700321FFF7DEFFA968C87019
:10028000000A08710024094EA868015D304601F09B
:100290007BFC4021304601F0D3FB0028F9D0641CE0
:1002A000052CF1DB70BD000024000020001001408F
:1002B00001490860704700000C3C024070B50646DA
:1002C0000025002905D0012927D0022928D04FF484
:1002D000407500F081F809281ED1134C206820F4E5
:1002E00040702060206828432060206820F0F800DB
:1002F0002060206846F0020108432060206840F436
:100300008030206000F068F8216821F0020121604F
:10031000216821F0F801216070BD4FF48075D8E7A5
:100320004FF40075D5E70000103C024009200D494C
:100330000A68D20301D5012070470A68D20601D5A8
:10034000062070470A68D20501D5022070470A6866
:1003500012F0E00F01D00720704709688907FBD52C
:10036000082070470C3C02400248016841F00041FF
:1003700001607047103C024070B505460E4600F023
:100380002BF8092813D10A4C206820F44070206013
:10039000206840F480702060206840F001002060F8
:1003A0002E8000F019F8216821F00101216070BD54
:1003B000103C024005480068002805DA034804495B
:1003C0000C3801600349016070470000103C024096
:1003D00023016745AB89EFCD08B509200090FFF7F1
:1003E000A5FF009002E0FFF7A1FF00909DF800003C
:1003F0000128F8D09DF8000008BD0000014600204B
:10040000A1F100624FF480439A4204D3204808448B
:10041000984201D2082070471E480844984201D2F1
:10042000102070471C480844984201D21820704799
:100430001A480844B0F5803F01D220207047184880
:100440004FF400320844904201D2282070471548EA
:100450000844904201D2302070471348084490422B
:1004600001D23820704711480844904201D2402000
:1004700070470F480844904201D2482070470D4809
:100480000844904201D25020704758207047000025
:1004900000C0FFF70080FFF70040FFF70000FFF704
:1004A0000000FEF70000FCF70000FAF70000F8F784
:1004B0000000F6F70000F4F710B5002305E030F86F
:1004C000024B22F813405B1CDBB28B42F7D310BD0A
:1004D0002DE9F04105460E461746FFF76BFFF32066
:1004E000FFF7E6FE2846FFF789FF044605EB4600C6
:1004F000FFF784FF804608E002212046FFF7DEFE7A
:10050000092800D0FEE70834A4B24445F4D90024F9
:100510000AE037F814102846FFF72EFF092800D00C
:10052000FEE7AD1C641CA4B2B442F2D3BDE8F041B6
:10053000FFF71ABF7CB50121022000F06BFD4FF4DC
:100540008054009400208DF8060002208DF80700EA
:1005500001218DF804108DF805000A4E69463046D9
:1005600000F012F8650000956946304600F00CF87E
:100570002146304600F056F82946304600F052F841
:100580007CBD0000000402402DE9F041002201275B
:100590004FF0030C07FA02F50B682B40AB422CD14D
:1005A000066853000CFA03F4A64306600E79D0F8EF
:1005B00000809E4046EA080606600E79012E01D0B2
:1005C000022E12D18668A64386604E79D0F8088044
:1005D0009E4046EA080686604668AE434660456827
:1005E0008E799640B6B235434560C568A543C5606F
:1005F000CC799C40C3681C43C460521C102AC9D3E8
:10060000BDE8F08110B54B07DB0E9A40C90800EB3E
:100610008100016A0F249C40A1430162016A1143D9
:10062000016210BD018370470148406870470000B7
:10063000340000200A2804D2074931F81020012A8A
:1006400001D000207047044A143A32F8102021F8F3
:100650001020012070470000B0050020FEE70000D8
:10066000F0B587B006460121084600F0D3FC012111
:10067000480400F0DDFC00248DF81A4001208DF8BC
:100680001B0002258DF819508DF81850082105918E
:100690001B4F05A93846FFF777FF8DF81850042047
:1006A000059005A93846FFF76FFF0722022138465B
:1006B000FFF7A8FF072203213846FFF7A3FF6420B6
:1006C00046430196ADF80840ADF80A40ADF80C403D
:1006D000ADF810400C20ADF80E000A4C01A92046E0
:1006E00001F0F0F900F03EF8012240F225512046D9
:1006F00001F0CDF90121204601F096F907B0F0BDD7
:10070000000002400044004070B5134DB5F8E6000B
:1007100060280AD0C02808D04FF4C071884204D0A5
:10072000B0F5906F01D0A5F8E61035F8E60FFFF7A9
:1007300097FF0A4C0020A070E07025F89A0CA87969
:10074000052101EB40002070FFF76EFF6060BDE8FF
:100750007040034800F0B3BE7C0000203C00002045
:10076000D006002008B54FF4A06000F02FFB262033
:100770008DF8000001208DF8010003218DF8021092
:100780008DF80300684600F0EDFA08BD2DE9F04150
:100790002D4DA8782978884254D32C4E2C4C307893
:1007A000B4F8E81088424DD1707803284AD1B07867
:1007B000B4F8EC10B0EB410F44D1FFF735FF34F83B
:1007C0003C1F218162886281A288A2813279F378FC
:1007D00042EA03222280AB88C31A9BB2638068601E
:1007E000501AA0803C3C4FF480664FF44067B24200
:1007F00005D2B94203D900F5805CA4F840C0BA42E2
:1008000005D9B14203D2A0F58050A4F8400043B10D
:10081000B4F840004FF47A714843B0FBF3F0A4F809
:10082000420034F93E2F0B48B4F9021000F027FEC5
:10083000084800F017FEA081208A401C208200207A
:10084000E870A870BDE8F0813C000020D0050020D1
:100850007C000020D00600202DE9F041194D1A49F6
:10086000E878012804D1B1F84C00401CA1F84C00F4
:100870000027AF700120E870144E6A78307810437A
:1008800017D0104C11F8E80F083420704888020A7D
:10089000A270E0708888010A2171607106212046EB
:1008A000FFF7CAFCA071000AE0713078401C30707C
:1008B0006F70BDE8F041034908220831044801F097
:1008C00074B900003C0000207C00002025000020BE
:1008D0000044004010B545F2555000F031F80220B8
:1008E00000F022F840F6FF7000F024F800F014F851
:1008F000BDE81040AFF3008002494CF6CC400860E0
:10090000704700000030004002494AF6AA20086003
:10091000704700000030004002494AF6AA200860F3
:1009200070470000003000400149486070470000F7
:1009300000300040014988607047000000300040EE
:1009400001490860704700000030004070B586B073
:100950000121084600F05EFB0121102000F076FB2B
:1009600000248DF8164001208DF8170002258DF81F
:1009700015508DF81450400204901C4E04A93046C6
:10098000FFF702FE8DF814506902049104A9304665
:10099000FFF7FAFD07220A213046FFF733FE072250
:1009A00009213046FFF72EFE4FF4E1300090ADF8FC
:1009B0000440ADF80640ADF80840ADF80C400C20FE
:1009C000ADF80A000A4C6946204601F07BF800F0B9
:1009D00011F8012240F22551204601F058F801217A
:1009E000204601F021F806B070BD00000000024072
:1009F0000010014008B54FF4A06000F0E7F9252091
:100A00008DF8000001208DF801008DF802008DF8AE
:100A10000300684600F0A6F908BDFEE70248C18859
:100A2000491CC18070470000240000202DE9F043DC
:100A30008A4CA0684178002904D0CA1F082A01D333
:100A4000102902D90120BDE8F0832179A1F1080223
:100A5000F32A01D30320F6E7891EC9B2FFF7ECFBA6
:100A60002179A268114411F8023D497843EA012135
:100A7000884201D00320E6E7D078917840EA01204F
:100A80005179137941EA03215378DFF8D4C1012663
:100A9000012B01D0022B3CD1B1F5707F01D903208D
:100AA000D1E74318C82B01D30220CCE7921C4B0797
:100AB00007D0CB085B1C02F8013B0546002300274A
:100AC00021E0CB08F7E73CF81580B8F1000F08D01B
:100AD00092F8008006FA03F948EA090882F80080D3
:100AE00007E092F8008006FA03F928EA090882F87C
:100AF00000805B1CDBB2082B01D30023521C6D1C51
:100B0000ADB27F1CBFB28F42DDD3A2689278521D76
:100B10006271A36808275A78052A10D1C82801D322
:100B2000022090E7B1F57F4F02D021B103208AE780
:100B30002CF8106002E000222CF8102067715A781F
:100B40000F2A23D14218C82A01D302207BE70022B2
:100B5000DB1D0CEB400C002515E093F8008006FA35
:100B600002F918EA090F02D04FF0010801E04FF036
:100B700000082CF8028B521CD2B2082A01D30022A2
:100B80005B1C6D1CADB28D42E7D36771A368DFF8C3
:100B9000D4C05A78032A01D0042A24D17D2901D94E
:100BA000032050E700EB0108B8F1C80F01D3022081
:100BB00049E70CEB40024D009D70DB1C05460CE044
:100BC000B2F800904FEA192903F8019B92F80090BF
:100BD00003F8019B921C6D1CADB2A845F0D8A26829
:100BE0009278521D6271A2685378062B0ED1C828E4
:100BF00001D3022027E72CF81010642800D32670B8
:100C0000A0F16403142B00D8667067715378102B21
:100C100022D100EB0108B8F1C80F01D3022012E77E
:100C2000D21D0CEB400103460CE012F8015B2D02D3
:100C30000D8012F801CB4CEA050CA1F800C0891C0C
:100C40005B1C9BB29845F0D8642800D326706438AA
:100C5000142800D2667067710020F4E6240000209A
:100C60000C0200207C00002010B59AB01D4A1C48E0
:100C7000906000F58070D060A0F584640121A4F834
:100C8000C810B4F9CA0060280BD0C02809D0B0F54C
:100C9000C07F06D04FF49063984202D0A4F8CA30C7
:100CA0001170012901DDFF2902DBA4F8C8101170C1
:100CB000FFF7A0FEC8346421608810FB01F0FFF745
:100CC00045FEB4F90230B4F9002007A101A800F0F4
:100CD00097FF01A90E4800F07FFF1AB010BD000079
:100CE0009C030020240000202050726F6772616D09
:100CF00020496E697469616C697A652E2E2E2041D7
:100D000064723A25642C20426175643A25640000BF
:100D10000010014070B5104CE08805281AD9A06871
:100D2000E168A160E060A07820710025A570012233
:100D3000E27008280DD308780849B1F9C810884234
:100D400007D1FFF773FE10B1FFF78CFA01E000F056
:100D500047F8E58070BD0000240000207C000020E2
:100D60007047000030B50F23C27801250178002AB2
:100D70001FD0154A126802F4E062C2F5E062C2F3C5
:100D80000722C2F10404D3404278A24084781C4078
:100D90001443220101F1E02181F80024007800F0E1
:100DA0001F018D404009800000F1E020C0F8005193
:100DB00030BD01F01F0085404809800000F1E020AF
:100DC000C0F8805130BD00000CED00E0024908433E
:100DD00002490860704700000000FA050CED00E0D1
:100DE00070B5124D6879801EC1B2A868FFF724FA69
:100DF0006A79A9680A4402F8020C6A79000A114467
:100E000001F8010C00240A4E0BE0A868015D304691
:100E100000F0BAFE4021304600F012FE0028F9D062
:100E2000641C68798442F0DB70BD0000240000205F
:100E300000100140F0B587B006460121042000F003
:100E4000E9F80121202000F001F900248DF81A4072
:100E500001208DF81B0002258DF819508DF81850CF
:100E6000802105911B4F05A93846FFF78DFB8DF8B2
:100E700018504020059005A93846FFF785FB082249
:100E800006213846FFF7BEFB082207213846FFF748
:100E9000B9FB642046430196ADF80840ADF80A401E
:100EA000ADF80C40ADF810400C20ADF80E000A4C27
:100EB00001A9204600F006FE00F02EF8012240F2C3
:100EC0002551204600F0E3FD0121204600F0ACFD55
:100ED00007B0F0BD000802400014014010B50C49F5
:100EE000B1F8CE0060280AD0C02808D04FF4C072F4
:100EF000904204D0B0F5906F01D0A1F8CE20B1F9A6
:100F0000CE00FFF797FF034900204870887010BD9E
:100F10007C0000204C00002008B54FF4A060FFF7D3
:100F200055FF47208DF8000001208DF801000321B6
:100F30008DF802108DF803006846FFF713FF08BD17
:100F4000F0B5194DA87802282CD118490878FF2847
:100F500028D14878FF2825D18878A52822D1C878BB
:100F60006138C4B2052C1DD20879812817D1891D9A
:100F70000F4E04EB440006EB800000220B781B02AE
:100F800003804F78891C1F4320F8027B521C062ADD
:100F9000F4DB503436F81400401C26F8140000200E
:100FA0006870A870F0BD00004C000020040700200D
:100FB0007C00002070B5134C2046A17800780029F1
:100FC00007D0114A00F15A0132F811305B1C22F8A7
:100FD0001130002565700121A1700A496130083186
:100FE000C8700A7910444A79104488710822074869
:100FF00000F0DBFD2078401CC0B22070052800D333
:10100000257070BD4C0000207C00002000140140C1
:1010100070470000054A002903D0116801431160A0
:1010200070471168814311607047000030380240FA
:10103000054A002903D01168014311607047116807
:10104000814311607047000040380240054A002982
:1010500003D011680143116070471168814311602A
:10106000704700004438024070B5244B196801F005
:101070000C01234C00291ED0224E04291DD0082922
:101080001DD00460196801F0F00109091E4A545C82
:101090000168E14041601C6804F4E054A40A145D56
:1010A00021FA04F484601B6803F460435B0BD25C98
:1010B000D140C16070BD0460E4E70660E2E70F4A1A
:1010C000121F1168C1F38055116801F03F0135B15D
:1010D000B6FBF1F11468C4F38814614305E0B4FB76
:1010E000F1F11468C4F3881461431268C2F3014239
:1010F000521C5200B1FBF2F10160C3E70838024014
:101100000024F40040787D011400002070470000A6
:10111000F0B587B0064601210220FFF77BFF0121D1
:101120008804FFF785FF00248DF81A4001208DF810
:101130001B0002258DF819508DF81850C102059139
:101140001B4F05A93846FFF71FFA8DF818506802A3
:10115000059005A93846FFF717FA07220A213846F5
:10116000FFF750FA07220B213846FFF74BFA6420AD
:1011700046430196ADF80840ADF80A40ADF80C4082
:10118000ADF810400C20ADF80E000A4C01A9204625
:1011900000F098FC00F03EF8012240F22551204674
:1011A00000F075FC0121204600F03EFC07B0F0BDC8
:1011B000000402400048004070B5134DB5F8D60059
:1011C00060280AD0C02808D04FF4C071884204D0EB
:1011D000B0F5906F01D0A5F8D610B5F8D600FFF79E
:1011E00097FF0A4C0020A070E070A88495F8DC00FE
:1011F000052101EB40002070FFF716FA6060BDE8A2
:101200007040034800F05BB97C0000205C000020C7
:101210000409002008B54FF4A060FFF7D7FD272090
:101220008DF8000001208DF8010003218DF80210D7
:101230008DF803006846FFF795FD08BD2DE9F041E4
:101240002B4DA878297888424FD32A4E2A4C3078E3
:10125000B4F8D810884248D17078032845D1B078C6
:10126000B4F8DC10B0EB410F3FD1FFF7DDF9A18AF4
:10127000A183E28AE283228B22843279F37842EAE4
:101280000322A282AB88C31A9BB2E3826860501A21
:1012900020834FF480664FF44067B24205D2B942D2
:1012A00003D900F5805CA4F818C0BA4204D9B14251
:1012B00002D2A0F58050208333B1208B4FF47A7195
:1012C0004843B0FBF3F06083B4F91620B4F918106A
:1012D0000A4800F0D4F8094800F0C4F86084E08CB3
:1012E000401CE0840020E870A870BDE8F081000098
:1012F0005C000020040800207C000020040900207D
:101300002DE9F041184D1949E878012802D1888C5F
:10131000401C88840027AF700120E870144E6A7862
:101320003078104317D0104C11F8D80F08342070C3
:101330004888020AA270E0708888010A21716071F1
:1013400006212046FEF778FFA071000AE071307890
:10135000401C30706F70BDE8F0410349082208312D
:10136000044800F022BC00005C0000207C0000204B
:1013700025000020004800401CB50021019100918B
:101380002E4A106840F4803010604FF4A04310687B
:1013900000F4003000900198401C0190009810B9B2
:1013A00001989842F3D11068800302D50120009083
:1013B00000E00091009801283FD1204840300168AA
:1013C00041F0805101601E49086840F440400860C7
:1013D0001A48083003680360036843F4004303605D
:1013E000036843F4A0530360041F164B2360136883
:1013F00043F08073136013689B01FCD50A6842F4C4
:1014000080320A604A68D203FCD50A6842F400328E
:101410000A604A689203FCD50B4A40F205711160DC
:10142000016821F003010160016841F002010160DF
:101430000168C1F381010229FAD11CBD00380240C4
:1014400000700040195A4007003C02400A2806D2AA
:10145000034A491C22F81010143222F81010704769
:101460009C0500208168002907D040684FF47A72FB
:10147000504390FBF1F000B270470020704730B548
:1014800043685C184460038800EB4303B3F90C50D5
:10149000641B4460846814448460B3F92050641B66
:1014A00084609981018800EB41010A840188491C0C
:1014B00089B201800A2901D30021018030BD0023B7
:1014C0000380438043608360002100EB41029381ED
:1014D0001384491C0A29F8DB7047000010B5FFF798
:1014E0009DFA0C484168491C4160016811B90168C6
:1014F000491E01600020084931F81020012A04D952
:1015000031F81020521E21F81020401C0A28F3DB6D
:1015100010BD000034000020B005002010B51648B2
:1015200042F210710068B0FBF1F0401E00214FF054
:10153000E022B0F1807F01D3012007E050610F4B22
:10154000F0201870916107201061002000B1FEE7C3
:10155000106960F0010010610020094A02F11403D3
:1015600002F1280422F8101023F810102154401C16
:101570000A28F7DB10BD00000000002023ED00E08A
:101580009C05002010B51248016841F4700101600B
:101590001048016841F0010101600E4A0021083243
:1015A000116002680C4B1A400260031D0B4A1A605E
:1015B000026822F48022026006480C300160FFF7C6
:1015C000DBFE03494FF000608039086010BD000069
:1015D00088ED00E000380240FFFFF6FE10300024E6
:1015E000F0B587B0064601211020FFF713FD012159
:1015F0008807FFF71DFD00248DF81A4001208DF8A3
:101600001B0002258DF819508DF818500102059124
:101610001B4F05A93846FEF7B7FF8DF818508020FC
:10162000059005A93846FEF7AFFF08220721384686
:10163000FEF7E8FF082211463846FEF7E3FF642074
:1016400046430196ADF80840ADF80A40ADF80C40AD
:10165000ADF810400C20ADF80E000A4C01A9204650
:1016600000F030FA00F03EF8012240F22551204609
:1016700000F00DFA0121204600F0D6F907B0F0BDC8
:10168000001002400078004070B5134DB5F8DE0040
:1016900060280AD0C02808D04FF4C071884204D016
:1016A000B0F5906F01D0A5F8DE10B5F8DE00FFF7B9
:1016B00097FF0A4C0020A070E070288795F8E4009E
:1016C000052101EB40002070FEF7AEFF6060BDE831
:1016D00070400348FFF7F3BE7C0000206C00002040
:1016E000380A002008B54FF4A060FFF76FFB5220C6
:1016F0008DF8000001208DF8010003218DF8021003
:101700008DF803006846FFF72DFB08BD2DE9F04179
:101710002B4DA878297888424FD32A4E2A4C30780E
:10172000B4F8E010884248D17078032845D1B078E9
:10173000B4F8E410B0EB410F3FD1FEF775FF218DF7
:101740002186628D6286A28DA2863279F37842EA82
:1017500003222285AB88C31A9BB263856860501A46
:10176000A0854FF480664FF44067B24205D2B9427B
:1017700003D900F5805CA4F82CC0BA4204D9B14268
:1017800002D2A0F58050A08533B1A08D4FF47A71BC
:101790004843B0FBF3F0E085B4F92A20B4F92C10EB
:1017A0000A48FFF76CFE0948FFF75CFEE086608F91
:1017B000401C60870020E870A870BDE8F081000040
:1017C0006C000020380900207C000020380A00202E
:1017D0002DE9F041184D1949E878012802D1088F08
:1017E000401C08870027AF700120E870144E6A780B
:1017F0003078104317D0104C11F8E00F08342070E7
:101800004888020AA270E0708888010A217160711C
:1018100006212046FEF710FDA071000AE071307825
:10182000401C30706F70BDE8F04103490822083158
:10183000044800F0BAB900006C0000207C000020D1
:10184000250000200078004070B5104C40F2255172
:10185000204600F0FCF840B1204600F091F90C4B16
:1018600099784A1C9A700B4A505440F227752946C1
:10187000204600F0ECF8002806D029462046BDE8B6
:101880007040002200F003B970BD000000780040F5
:101890006C0000203809002070B5164C40F225512C
:1018A000204600F0D4F8A8B1204600F069F9C1B292
:1018B000114B0025D87860B11048B0F9C8008842B3
:1018C00002D0987800B9DD709A78501C9870D8686A
:1018D0008154DD8040F227752946204600F0B7F894
:1018E000002806D029462046BDE87040002200F0BE
:1018F000CEB870BD00100140240000207C00002004
:1019000070B5104C40F22551204600F0A0F840B1CF
:10191000204600F035F90C4B99784A1C9A700B4A16
:10192000505440F227752946204600F090F80028D0
:1019300006D029462046BDE87040002200F0A7B836
:1019400070BD0000004400403C000020D005002095
:1019500070B5104C40F22551204600F078F840B1A7
:10196000204600F00DF90C4B99784A1C9A700B4AEE
:10197000505440F227752946204600F068F80028A8
:1019800006D029462046BDE87040002200F07FB80E
:1019900070BD0000004800405C00002004080020EA
:1019A00070B51D4D40F22551284600F050F818B38F
:1019B000284600F0E5F8C1B2184C194B26290BD186
:1019C00058685A78401E824206DBA1540220987063
:1019D00014480288521C02805A7812B1501C587068
:1019E000A154FF2904D1587810B9012058702170F2
:1019F0005878062800D1596040F2277421462846BD
:101A000000F025F8002806D021462846BDE87040A1
:101A1000002200F03CB870BD001401400407002013
:101A20004C000020F4000020002904D0818941F4FA
:101A3000005181817047818921F400518181704773
:101A40000246002012880A4200D00120704770B57B
:101A5000002440F66A12C1F3421301F01F0501266B
:101A600006FA05F2012B0CD0022B0DD0838A13400D
:101A7000090A8E40008830400BB100B10124204695
:101A800070BD83891340F3E7038A1340F0E710B574
:101A900040F66A13C1F3421301F01F040121A14073
:101AA000012B07D0022B07D014303AB102680A4349
:101AB000026010BD0C30F8E71030F6E702688A4388
:101AC000026010BD7FB504460D46208A20F44051C7
:101AD000E88808432082A08941F20C618843A988E4
:101AE0002A8911436A8902431143A181A08A20F403
:101AF0004071A8890843A0826846FFF7B5FA1E48DE
:101B0000844202D01D48844201D1039800E002982B
:101B1000A189090408D500EBC00101EB0010296878
:101B20004900B0FBF1F007E000EBC00101EB001051
:101B300029688900B0FBF1F06422B0FBF2F10901E1
:101B40000B096FF018056B4300EB8300A3891D049C
:101B50004FF0320307D503EBC000B0FBF2F000F00A
:101B60000700084306E003EB0010B0FBF2F000F0C2
:101B70000F00084320817FBD001001400014014088
:101B80008088C0F308007047C1F308018180704766
:101B9000FEE710B504462046FFF7F6FF80212046F9
:101BA000FFF74EFF0028F9D010BD2DE9F0410746A0
:101BB0000D46164600240BE015F8011B3846FFF7CA
:101BC000E3FF80213846FFF73BFF0028F9D0641C73
:101BD000B442F1DBBDE8F08170B506460D46002445
:101BE0003046295DFFF7D5FF641C285D0028F7D13A
:101BF00040213046FFF724FF0028F9D070BD0000D7
:101C00000FB4084B10B504A902AA039800F01CF801
:101C1000044602A9002000F0C1F8204610BC5DF87F
:101C200014FB00009D1D000802E008C8121F08C137
:101C3000002AFAD170477047002001E001C1121F4D
:101C4000002AFBD1704700002DE9FF4F89B09B4669
:101C50000446002506E025280BD05A460B999047EC
:101C6000641C6D1C20780028F5D10DB02846BDE815
:101C7000F08F0027B8460122474900E0074314F8D7
:101C8000013F203B02FA03F00842F7D120782E28CA
:101C900019D114F8010F47F004072A280ED06FF06D
:101CA0002F022078A0F1300109290CD808EB880117
:101CB00002EB410100EB0108641CF2E70A98641C86
:101CC00050F8048B0A9020780028CED0642808D0E1
:101CD000692806D075281ED05A460B9990476D1C6E
:101CE00058E00A994FF00A0901C90A91002802DA5E
:101CF00040422D2102E0390504D52B218DF820101A
:101D0000012103E0F90704D02021F7E78A4608AE55
:101D10000DE00021FAE70A994FF00A0901C90A917A
:101D2000F7E74946FEF75EFA303106F8011D002854
:101D3000F7D1ADEB060000F12009780701D44FF090
:101D40000108C84502DDA8EB090000E0002080463C
:101D5000002706E008A85A46C05D0B9990476D1C05
:101D60007F1C5745F6DB04E030205A460B9990471C
:101D70006D1CB8F10001A8F10108F5DC05E016F8CA
:101D8000010B5A460B9990476D1CB9F10001A9F15E
:101D90000109F4DC641C65E7092801000A68531C8A
:101DA0000B60107070470000FFF7B8FBFEF7C2FB36
:101DB000304A314F904664213846FEF77DFB2D486E
:101DC000001D0188491C01802C4C01202070FEF769
:101DD0004BFFFFF783F8FFF7EFF9FFF755FCFEF72E
:101DE00093FC4FF4FA710020FFF730FB4FF47A7147
:101DF0000120FFF72BFB64210220FFF727FB642162
:101E00000320FFF723FBFEF765FD1D4D0026FEF7BF
:101E100081FFFFF795F8FFF711FAFFF777FCFEF760
:101E2000B5FC0020FEF706FC50B1FEF76DFD15492C
:101E3000086880F40050086028780A2800D92E70BD
:101E40000120FEF7F7FB38B1207828B14246642123
:101E50003846FEF73DFB26700320FEF7EBFB00281B
:101E6000D5D0FFF7A7F8FFF74BFAFFF7B1FCFEF765
:101E7000F3FCCCE74401002000000108240000200E
:101E800025000020140402400000C1C081C14001AF
:101E900001C3C003800241C201C6C006800741C71A
:101EA0000005C1C581C4400401CCC00C800D41CDEA
:101EB000000FC1CF81CE400E000AC1CA81CB400BBA
:101EC00001C9C009800841C801D8C018801941D98A
:101ED000001BC1DB81DA401A001EC1DE81DF401F1A
:101EE00001DDC01D801C41DC0014C1D481D540152A
:101EF00001D7C017801641D601D2C012801341D33A
:101F00000011C1D181D0401001F0C030803141F1C9
:101F10000033C1F381F240320036C1F681F7403719
:101F200001F5C035803441F4003CC1FC81FD403DE9
:101F300001FFC03F803E41FE01FAC03A803B41FBB9
:101F40000039C1F981F840380028C1E881E9402909
:101F500001EBC02B802A41EA01EEC02E802F41EF19
:101F6000002DC1ED81EC402C01E4C024802541E529
:101F70000027C1E781E640260022C1E281E3402339
:101F800001E1C021802041E001A0C060806141A149
:101F90000063C1A381A240620066C1A681A7406719
:101FA00001A5C065806441A4006CC1AC81AD406DE9
:101FB00001AFC06F806E41AE01AAC06A806B41ABB9
:101FC0000069C1A981A840680078C1B881B9407989
:101FD00001BBC07B807A41BA01BEC07E807F41BF19
:101FE000007DC1BD81BC407C01B4C074807541B529
:101FF0000077C1B781B640760072C1B281B3407339
:1020000001B1C071807041B00050C19081914051C8
:102010000193C053805241920196C0568057419718
:102020000055C19581944054019CC05C805D419DE8
:10203000005FC19F819E405E005AC19A819B405BB8
:102040000199C059805841980188C0488049418908
:10205000004BC18B818A404A004EC18E818F404F18
:10206000018DC04D804C418C0044C1848185404528
:102070000187C047804641860182C0428043418338
:102080000041C18181804040A8200008000000205C
:102090007C000000281C0008242100087C0000208F
:1020A000F40D0000381C00080095BA0A000000007A
:1020B00000000000010203040607080900000000F8
:1020C00001020304010203040607080900000000DE
:1020D0000000000000000000000000000000000000
:1020E0000000000055010000000000000103000096
:1020F000000100000000000064000000FFFFA56177
:102100000105CC265501000000000000010300007D
:102110000001000055010000000000000103000064
:0421200000010000BA
:04000005080001AD41
:00000001FF
